:020000040000FA
:1000000068050020F1150000812D0000CD0F0000D3
:10001000CD0F0000CD0F0000CD0F0000CD0F000070
:10002000CD0F0000CD0F0000CD0F0000910F00009C
:10003000CD0F0000CD0F0000390F0000172D00007C
:10004000F10F0000F10F0000F10F0000F10F0000B0
:10005000F10F0000F10F0000F10F0000F10F0000A0
:10006000F10F0000F10F0000F10F0000F10F000090
:10007000F10F0000F10F0000F10F0000F10F000080
:10008000F10F0000F10F0000F10F0000F10F000070
:10009000F10F0000F10F0000F10F0000F10F000060
:1000A000F10F0000F10F0000F10F0000F10F000050
:1000B000F10F0000F10F0000F10F0000F10F000040
:1000C000F10F0000F10F0000F10F0000F10F000030
:1000D000F10F0000F10F0000F10F0000F10F000020
:1000E000F10F0000F10F0000F10F0000F10F000010
:1000F000F10F0000F10F0000F10F0000F10F000000
:10010000F10F0000F10F0000F10F0000F10F0000EF
:10011000F10F0000F10F0000F10F0000F10F0000DF
:10012000F10F0000F10F0000F10F0000F10F0000CF
:10013000F10F0000F10F0000F10F0000F10F0000BF
:10014000F10F00007BB972B90029BEBF00204FF04B
:10015000004106E008BF00281CBF6FF000414FF0CF
:10016000FF3000F0AFB9ADF1080C6DE904CE002905
:1001700009DB002B1ADB00F035F8DDF804E0DDE9DF
:10018000022304B07047404261EB4101002B1BDBAE
:1001900000F028F8DDF804E0DDE9022304B0404275
:1001A00061EB4101524263EB43037047524263EB00
:1001B000430300F017F8DDF804E0DDE9022304B0A2
:1001C000404261EB41017047524263EB430300F050
:1001D00009F8DDF804E0DDE9022304B0524263EBE4
:1001E000430370472DE9F0478C46089D04468A4634
:1001F000002B4AD18A42174662D9B2FA82F64EB132
:10020000C6F1200E01FA06F3B740B44020FA0EFE04
:100210004EEA030A4FEA1748230C1FFA87F9BAFB84
:10022000F8FE08FB1EAA0EFB09F243EA0A439A42B3
:100230000BD9FB180EF1FF312CBF012000209A4290
:1002400002D9002800F02A818E469A1AA3B2B2FB86
:10025000F8F008FB102200FB09F943EA0244A1452B
:1002600007D93C1900F1FF3302D2A14500F21081F9
:100270001846A4EB090440EA0E4000211DB1F440E9
:100280000023C5E90043BDE8F0878B4208D9002D63
:1002900000F0F2800021C5E9000C0846BDE8F087B7
:1002A000B3FA83F100294ED16345C0F0E880824261
:1002B00040F2E5800846002DE5D0C5E9004AE2E7B6
:1002C00002B9FFDEB2FA82F6002E40F099808B1A56
:1002D0004FEA124E1FFA82F801214FEA144CB3FB89
:1002E000FEF20EFB123008FB02F94CEA004CE1452D
:1002F00008D917EB0C0C02F1FF3302D2E14500F2F2
:10030000CA801A46ACEB090CA3B2BCFBFEF00EFB94
:1003100010CC08FB00F843EA0C44A0450ED93C1968
:1003200000F1FF332CBF4FF0010C4FF0000CA04543
:1003300003D9BCF1000F00F0A8801846A4EB080414
:1003400040EA02409AE7C1F120048B4002FA01FE24
:100350000CFA01F6E24020FA04F72CFA04FC00FA49
:1003600001F813433E431F0C320C1FFA83F9BCFB08
:10037000F7F007FB10CC00FB09FA42EA0C4CE2450F
:1003800008D913EB0C0C00F1FF3202D2E24500F267
:1003900089801046ACEB0A0CB6B2BCFBF7FA07FB3F
:1003A0001ACC0AFB09F946EA0C42914506D99A187B
:1003B0000AF1FF3601D291457AD8B2464AEA0040A6
:1003C000A2EB0902A0FB0E67BA42B446B94602D3BB
:1003D00007D1B04505D2B6EB0E0C67EB030301382D
:1003E0009946002D6BD0B8EB0C0362EB090202FAC0
:1003F00004F4CB40CA4000211C43C5E9004242E757
:10040000B740C6F1200201FA06F3B44021FA02FC1B
:100410004FEA174E20FA02F21FFA87F8BCFBFEF1F2
:100420001A430EFB11CC01FB08F0130C43EA0C4CF1
:10043000604507D917EB0C0C01F1FF3301D2604581
:1004400033D81946ACEB000C92B2BCFBFEF00EFBAD
:1004500010CC00FB08F342EA0C4C634507D917EBBC
:100460000C0C00F1FF3201D2634525D81046ACEBED
:10047000030340EA014130E72946284603E7841A8E
:100480006CEB030301209A4615E702383C4455E71C
:1004900002383C44EDE6023ABC4433E7AEF1020ECA
:1004A0003B44D2E602389C4474E70239BC44C9E7B5
:1004B000AAF1020A1A4481E70238BC44D7E7294668
:1004C000E1E600BF704700BF2DE9E04F2746A04698
:1004D000A146A246A346A4462DED108B4FF0000581
:1004E00045EC185B45EC195A45EC1A5A45EC1B5A79
:1004F00045EC1C5A45EC1D5A45EC1E5A45EC1F5A5A
:10050000F1EE105A4FF66076C0F6FF763540E1EE18
:10051000105A84F3008825462646A447BDEC108B6C
:10052000BDE8E08F82680C4B9A60036883F388888B
:10053000436883F38988027B02F00101EFF394831F
:1005400023F00303920748BF43F0020309B143F0CD
:10055000010383F39488704700ED02E0084AD368F2
:1005600048B123F400531B041B0C43F0BF6343F456
:100570000033D36070479BB243F40053F5E700BFEC
:1005800000ED00E0084AD36840B19BB243F48043D9
:1005900043F0BF6343F40033D360704723F48043D8
:1005A0001B041B0CF4E700BF00ED00E0084AD36811
:1005B00040B19BB243F0080343F0BF6343F4003300
:1005C000D360704723F008031B041B0CF4E700BF43
:1005D00000ED00E0034AD2F88C3043F44063C2F8E7
:1005E0008C30704700ED00E0084B1A6818B142F0FB
:1005F00001021A60704722F001021A601A6811B1F4
:1006000042F00202F5E722F00202F2E7D0ED00E04C
:100610000B6801330B60014B1B681847A80E0020C4
:100620002DE9F04F85B00E9C9B46012CB8BF0124EC
:10063000012B0CBF30232023154680468946012616
:100640000A270022DFF870A0019402930AF1010446
:100650000AB9AA451ED2B5FBF4F049463030C0476E
:1006600001220136B5FBF4F10A23013F012F04FBFF
:100670001155BAFBF3FAE9D1494605F13000C047FC
:10068000BBF1030F03D1019B9C1B002C0FDC05B0B9
:10069000BDE8F08F019BBB42E4DBBBF1020FE1D868
:1006A0004946029803920136C047039ADAE7494661
:1006B0002020C047013CE8E7FFC99A3B014B186086
:1006C000704700BFA80E0020002313B502AC44F809
:1006D000043D02460B460348214602F070F902B081
:1006E00010BD00BF1106000010B54FF02003EFF35E
:1006F000118483F31188BFF36F8F00F013F8012288
:10070000064BC3F840254FF0FF32054B9A62DA6280
:1007100084F31188BFF36F8F002010BD0090035049
:1007200000ED00E0524A136843F002031360002218
:10073000D30003F57F03D3F80013013108D0D3F8B9
:1007400000130132D3F80433B2F5807F0B60EFD190
:10075000484AD36913F001033BD0474B1946D3F8FD
:100760000024012AFBD1C3F80425D1F80034012B61
:10077000FBD1404BDA69D20708D5DA693E4922F04D
:100780000102DA61D1F80024012AFBD11A6A013290
:100790000AD11A6A22F0FF0242F020021A62364A97
:1007A000D2F80034012BFBD10022334BC3F80425CF
:1007B000D3F80024012AFBD1BFF34F8F2F49304BD0
:1007C000CA6802F4E0621343CB60BFF34F8F00BFEF
:1007D000FDE7126A0132C0D02A4A116809290AD1FC
:1007E00029490968013901299EBF4FF05021C1F8FC
:1007F0001431C1F818311368092B09D1224B1B6839
:10080000012B01BF214A1360A2F63822C2F87835C5
:100810001C4B1A68092A0BD11B4A1268022A07D1FD
:1008200000211A4A11600121A2F63822C2F8781577
:100830001B68092B06D1144B1B68022B02BF0C222C
:10084000134B1A600D4BD3F88C2042F44062C3F86E
:100850008C20D3F8882042F47002C3F88820BFF3BC
:100860004F8FBFF36F8F0B4B0B4A1A60704700BF5F
:10087000D0ED00E00080FF000090035000ED00E0AC
:100880000400FA053001FF003401FF00384A00502F
:10089000E4AE0350AC0E00200090D0030A2838B517
:1008A0000446074D04D128680D2143685B689847CA
:1008B0002868E1B243685B689847204638BD00BFAE
:1008C0000800002010B5044C204601F093F82046A3
:1008D000BDE81040FFF7F2BE9D08000008B50448CF
:1008E00001F078FB034B1860FFF7ECFF002008BD18
:1008F000AF3600000800002010B54FF02003EFF3E2
:10090000118283F31188BFF36F8F154C237833B9AD
:1009100082F31188BFF36F8F6FF0440010BD013B6D
:10092000DBB2237033B182F31188BFF36F8F6FF0A6
:100930000F00F3E70B4B0121187838B1217082F3D7
:100940001188BFF36F8F6FF00A00E7E7197082F329
:100950001188BFF36F8F044A11601870DEE700BF83
:100960005E0100205D0100200450005010B54FF0E2
:100970002002EFF3118382F31188BFF36F8F144CC1
:10098000207898B183F31188BFF36F8F4FF0502216
:10099000D2F81C34D2F8182403F0030343F4803354
:1009A000934314BF6FF04300002010BD012222705A
:1009B00083F31188BFF36F8F4FF05023C3F8040106
:1009C000C3F818150221C3F804139A60DEE700BFCC
:1009D0005C010020F8B54FF02002EFF3118382F3A1
:1009E0001188BFF36F8F294A1078441C147080B1AE
:1009F00083F31188BFF36F8F4FF05023D3F80C347B
:100A000003F00113B3F1011F0CBF00206FF043008E
:100A100009E01F4D2F783FB1107083F31188BFF3A9
:100A20006F8F6FF00A00F8BD01262E7083F31188D6
:100A3000BFF36F8F4FF0502421B3052000F0FEFC70
:100A4000C4F80071D4F80433C4F804632660D4F801
:100A500000219AB10022DB0758BF0123C4F800210E
:100A60004FF0200258BFC4F808330A4B0520C3F8E2
:100A7000802100F0D3FC00232B70BDE720BF40BFD6
:100A800020BFE4E7C4F800112660F4E75E0100200F
:100A90005D01002000E100E00022114B10B4C3F81A
:100AA00040214FF02002EFF3118482F31188BFF34D
:100AB0006F8FD3F8040540F247130A4A1168401AB1
:100AC00020F07F40B0FBF3F003FB0013136084F3CE
:100AD0001188BFF36F8F5DF8044B01F06DBE00BF4E
:100AE000005001500C00002038B51B4801F072FA8C
:100AF00070B3436802211B689847002440F24713F3
:100B0000164D4FF40012C5F80845C5F840354FF4AE
:100B10008033C5F84433C5F80433114B01211C6000
:100B2000104B1520C3F88021224600F09BFC1520B5
:100B300000F074FC012320460B4A13602B60D5F8AB
:100B4000043503F2471323F07F43C5F8403538BD21
:100B50004FF0FF30FBE700BFB636000000500150F9
:100B60004051015000E100E0085001504CF669028C
:100B700070B5B0F1FF3F08BF10464FF02003EFF310
:100B8000118483F31188BFF36F8F01389042124DA7
:100B9000A8BF10462E6840F24715104920EAE070C1
:100BA000D1F804359A1B22F07F4202F5A37205FBAF
:100BB0000020B0FBF5F005FB0060C31A23F07F4373
:100BC0001F2B98BF401920F07F40C1F8400584F3E7
:100BD0001188BFF36F8F70BD0C00002000500150D2
:100BE0004FF02002EFF3118382F31188BFF36F8F70
:100BF000084AD2F80405084A1268801A40F24712DF
:100C000020F07F40B0FBF2F083F31188BFF36F8FC9
:100C1000704700BF005001500C00002008B543B2DF
:100C2000002B0CDB012200F01F018A405B091049F8
:100C3000203341F82320BFF34F8FBFF36F8F830022
:100C400003F1A04303F540533128D3F8002806D020
:100C5000002A07DA02F00302023A012A02D8054A02
:100C6000C3F80028002102F05AF8002008BD00BF98
:100C700000E100E00001008030B54FF4004448F28C
:100C8000040585B04FF400412C4801F0F4FF2168C1
:100C90002B4801F0F0FF29682A4801F0ECFF1022F0
:100CA0000021684602F0B5F8236868460093029474
:100CB000FFF738FC0120FFF765FC0020FFF74EFC32
:100CC0000020FFF773FC01210020FFF78DFCFFF7E8
:100CD00081FC2C681C4801F0CEFF0820FFF79EFF26
:100CE00024F00104BFF34F8FBFF36F8F64086400DB
:100CF00020462146224623469FED140ADFED130AC3
:100D00009FED121ADFED111A9FED102ADFED0F2A69
:100D10009FED0E3ADFED0D3A9FED0C4ADFED0B4AE9
:100D20009FED0A5ADFED095A9FED086ADFED076A69
:100D30009FED067ADFED057AFFF7C6FBA1370000CD
:100D4000B8370000CD370000EB370000000000008E
:100D50002DE9F8435D4801F08EFF0021DFF8AC81FA
:100D60005B4F5C4D58F82140CA0301F5C07347F84A
:100D70002340594802F500434E1C01F07CFF574BBD
:100D800014F0100F5649574808BF194601F073FF79
:100D900014F0040F14BF72212D21284601F06BFFBF
:100DA00014F0020F14BF77212D21284601F063FFB4
:100DB00014F0010F14BF78212D21284601F05BFFAC
:100DC00014F4807F14BF6C212D21284601F053FFBD
:100DD000454801F050FF202E3146C3D1424801F072
:100DE0004AFF424801F047FF0021DFF82481384FD5
:100DF000384D58F821404A0301F5E07347F8234085
:100E00003B4802F500534E1C01F035FF334B14F004
:100E1000100F3349334808BF194601F02CFF14F076
:100E2000040F14BF72212D21284601F024FF14F075
:100E3000020F14BF77212D21284601F01CFF14F06A
:100E4000010F14BF78212D21284601F014FF14F45E
:100E5000807F14BF6C212D21284601F00CFF224811
:100E600001F009FF202E3146C3D100241E4801F0B5
:100E700002FF204801F0FFFE154B1F4DDFF8948064
:100E8000DFF89490C3F8C04405EBC406777955F8B1
:100E90003420002F14BF43464B462146174801F02B
:100EA000EAFE57B91648013401F0E5FE122CEBD1E9
:100EB0000D48BDE8F84301F0DEBE3079FFF7AEFE25
:100EC00008B11048EFE71048EDE700BFF436000026
:100ED000003000502C37000017370000DD360000CE
:100EE000D43600008A370000823B00002F37000014
:100EF00051370000653700003435000081370000AD
:100F00008D370000943700009C370000B434000097
:100F1000C4350000E9360000E1360000044881686D
:100F2000406A884203D003494FF080520A607047FC
:100F30001C01002004ED00E0202080F31188BFF3A5
:100F40006F8F11498A684FF028001044EFF3098C25
:100F500080E8F01F0D4F4FF000664A6A8A603E60DD
:100F6000506E0023536680F3118804B506488068EC
:100F700001F00DFFBDE8044002F1280090E8F01FE9
:100F80008CF30988704700001C01002004ED00E08C
:100F90001EF0040F0CBFEFF30880EFF309808169A6
:100FA00031F8021C11F0FF010229FFD001B501F058
:100FB000DFFE01BD014910220A60704710ED00E01C
:100FC000404080F3118830BF704700BF404080F33D
:100FD00011884FF004007146014202D0EFF30980FE
:100FE00001D1EFF30880714601B500F075F901BD3C
:100FF00001B572B60B4A106A00281EBF00211162AB
:1010000002F006F862B6EFF30580A0F110004FEA97
:10101000C0000549014409C99847BDE8014003489B
:10102000004700001C010020003200001D0F0000DE
:10103000002320210348C2180133412B82F80013FA
:10104000F9D1704700E100E0094A0A49936809684C
:101050005866996608494B6843F080534B600023FB
:1010600083F31188BFF36F8F9368986E704700BF4A
:101070001C0100209836000000ED00E038B51B4C44
:1010800005461B4801F0F7FDA36AD90602D51948A9
:1010900001F0F1FDA36A1A0702D5174801F0EBFD34
:1010A000A36A9B070ED5154801F0E5FD616BA36AA5
:1010B000180607D5124801F0DEFD1DB1A36A23F022
:1010C0008003A362094CA36ADA0702D50D4801F038
:1010D000D2FDA36A9B0602D50B4801F0CCFDA36AA2
:1010E000A36A002043F0FF03A36238BD00ED00E0D7
:1010F00052390000693900009D390000B139000003
:10110000CA390000E1390000013A000038B51E4C30
:1011100005461E4801F0AFFDA36AD90402D51C485C
:1011200001F0A9FDA36A1A0502D51A4801F0A3FD32
:10113000A36A9B050ED5184801F09DFDA16BA36A1B
:10114000180407D5154801F096FD1DB1A36A23F4D4
:101150000043A3620C4CA36A590502D5104801F064
:101160008AFDA36ADA0509D50E4801F084FD064A16
:101170000020936A43F47F43936238BDA36A9B04C3
:10118000F5D50948F1E700BF00ED00E0C4380000E4
:10119000DB3800009D390000ED3800000739000001
:1011A0001D39000039390000013A000010B51C4C0F
:1011B0001C4801F060FDA36A9A0102D51A4801F0AB
:1011C0005AFDA36ADB0102D5184801F054FDA36A59
:1011D000DC0202D5164801F04EFD114CA36A18033B
:1011E00002D5144801F047FDA36A590302D51248FD
:1011F00001F041FDA36A9A0302D5104801F03BFDBE
:10120000074CA36ADB0302D50D4801F034FDA36A45
:1012100000206FEA03436FEA1343A36210BD00BFCF
:1012200000ED00E0113B00002A3B00003E3B0000C7
:10123000593B0000843B0000A33B0000C93B000079
:10124000E43B000010B51A4C1A4801F014FDA169E6
:101250006369580602D5184801F00DFD6369D90786
:1012600007D5164801F007FD636943F0FF0363618A
:1012700010BD63699A0701D51148F3E763695B07FD
:1012800001D51048EEE76369180701D50E48E9E774
:101290006369D90601D50D48E4E763699A0601D56B
:1012A0000B48DFE763691B06DED50A48DAE700BFB3
:1012B000D0ED00E0313A00004B3A00005C3A00000B
:1012C000733A0000923A0000AE3A0000CC3A0000B7
:1012D000E23A0000FD3A00003D4B70B55E6801F057
:1012E0007F43B3F17F4F05460C465DD111F00100FD
:1012F00041D048061BD42968364B37480B44012B94
:1013000098BF296C01F0B7FC14F00804304B09D0E9
:10131000EFF389855C6814F4006408D12F4801F06C
:10132000AAFC41E0EFF388855B681905F6D4C6F3A3
:101330000806F21E092A3FD8DFE802F005383A2DE8
:10134000343E3E3E3E3C264801F095FC204BDA6A96
:10135000920701D52348E2E7D86A10F080400AD00E
:10136000214801F088FC214B1B784BB10120FFF78D
:1013700085FE06282BD02946BDE8704000F0B4B8A1
:101380001B4B1B781BB10120FFF7C0FEF1E7194B87
:10139000188884B214B1FFF709FFEAE7164B5869C1
:1013A0000028E8D0FFF74EFF0020E4E70020DEE74A
:1013B0000020E9E71148B2E711481249A6F11002EE
:1013C0000F2ED8BF0146104801F055FCECE770BD68
:1013D00000ED00E0A6ED05013E3C00005E3C000093
:1013E000833C00009B3C0000BD3C000028ED00E079
:1013F00029ED00E02AED00E0D0ED00E0DD3C00004A
:10140000103C0000253C0000143D0000024A5369D6
:1014100043F010035361704700ED00E043B2002B2E
:1014200008DB012200F01F0002FA00F0024A5B090B
:1014300042F82300704700BF00E100E043B2002BF8
:101440000DDB012200F01F0002FA00F05B09044AE4
:10145000203342F82300BFF34F8FBFF36F8F7047E5
:1014600000E100E043B2002B01F10101A8BF03F14C
:1014700060434FEA4111B8BF054BC9B2ABBF03F59A
:10148000614300F00F0083F800131954704700BF48
:1014900014ED00E02DE9F0418C18884617461E46F1
:1014A00004220A9B0999054601F05CFE00220D49C1
:1014B000A4F1200323F0070321F00101C5E9132261
:1014C000C5E91687996106991E6059600799996068
:1014D0000899D9604FF08071D961AB646A66BDE844
:1014E000F08100BF8B29000038B504460D46052861
:1014F0001AD8DFE800F00319191315170D4801F089
:10150000BAFB01F015F8AA6901460B4801F0B3FBDC
:1015100029462046BDE8384000F018B80748EEE7F5
:101520000748ECE70748EAE70146074801F0A3FB54
:10153000E7E700BF283D0000C63D0000483D000031
:101540006E3D0000883D0000A33D0000052810B559
:101550000CD000F0F3FF60B100F0F0FF0C490D4B30
:10156000002808BF19460C4801F085FBFFF728FD4D
:10157000FCE700F0F3FF0028EED1084C0848A16812
:1015800001F079FBA068BDE8104000F00BB800BF87
:10159000023E0000063E0000173E00001C01002035
:1015A000373E000038B505464FF02003EFF31184B5
:1015B00083F31188BFF36F8F01F0B5FD0A4B9B6871
:1015C000AB420BD1094B5A68C2F3080212B920464C
:1015D000FFF73AFD5A6842F080525A602046BDE853
:1015E000384001F047BD00BF1C01002000ED00E0C5
:1015F00001F0C2FB00F004F830BFFFF7FDBF00BFF1
:1016000008B50E4B83F30988EFF3148343F002030C
:1016100083F31488BFF36F8F094B0A4A23F07F03CB
:101620009360BFF34F8FBFF36F8F00F013FD00F097
:101630001BFDFFF7FDFC00F049FD00BFA80E0020D8
:101640000000000000ED00E010B50E4B88B00293E2
:101650000D4B0E4C03930E4B08A8049302AB40F8BD
:101660001C3D0C4A2346012100F044F90023079356
:10167000094B0121E41A05A80593069400F044F9EA
:1016800008B010BD00000020000000000000012094
:1016900006000100000000200000002010B50B68CB
:1016A0000C7A23F01F0304F01F021A43CB6864096D
:1016B00023F01F03044943F0010343EA4403886015
:1016C000CA600B6110BD00BF90ED00E030B585B081
:1016D0009DF808200D890B684C68498965F3040260
:1016E00061F3471200938DF8082023F01F03621E58
:1016F000134423F01F030393084B04461B68C3F3F2
:101700000723013B984205DC6946FFF7C7FF2046E7
:1017100005B030BD6FF01504F9E700BF90ED00E0B3
:101720002DE9F04F06460F4614460025DFF84881A4
:1017300085B0BD420BDA56F82530D3F80490B9F1E4
:10174000000F3CD0B9F11F0F05D86FF015042046EB
:1017500005B0BDE8F08F19F01F0FF6D1D3F800A047
:101760001AF01F0FF1D1504601F097F8834609EBAC
:101770000A00013801F091F88345E6D11BF1160FFC
:10178000E3D0631E5B45E0DBC8F808B0D8F80C0076
:10179000C8F808B0D8F8103056F8251020F01F000F
:1017A00043F01F09D1E900321A44984202F1FF3A8E
:1017B0001AD1D14505D15FFA8BF0FFF787FF0135CC
:1017C000B7E7C8F808B0D8F80C3022F01F0203F0D1
:1017D0001F031A43C8F80C20E0B2FFF777FF10F19F
:1017E000160FB2D0441CEAE7C8F808B0D8F81020A9
:1017F000013B23F01F0302F01F021343D145E0B267
:10180000C8F81030E9D0FFF761FF10F1160F9CD037
:10181000C8F808B0D8F80C209DF80830441C62F3D2
:1018200004038DF80830D8F810309DF808205B08C4
:1018300063F3471256F825308DF80820D3E90023CA
:101840001A44009209F1FF3322F01F021344A3EB64
:101850000A0323F01F030393D8F80030E4B2C3F364
:101860000723013BA342FFF670AF20466946FFF70E
:1018700015FF0134A3E700BF90ED00E00522034B04
:101880005A60BFF34F8FBFF36F8F704790ED00E04A
:10189000BFF35F8F0022014B5A60704790ED00E06C
:1018A000104970B5104D0A682E68C2F3072296429F
:1018B00014D8FFF7EDFF00240C4B0B63A64205D1B3
:1018C0000B4B1E70FFF7DAFF002070BD69682046E1
:1018D00001EB0411FFF7E2FE0134EFE74FF0FF30B8
:1018E000F3E700BF90ED00E074340000AAFF44006D
:1018F0005F01002010B5034C2278FFF711FF207024
:1019000010BD00BF5F0100202DE9F74F8946074653
:101910000026DFF89080DFF890A0214C4E4519DAC0
:10192000D7F804B0BBF1000F36D03B6818460193DE
:1019300000F0B3FF019B05460BEB0300013800F0FC
:10194000ACFF1423854203FB06F306D06FF01502AB
:1019500048F8032003B0BDE8F08F15F1160F48F8E2
:101960000350F7D09AF80020AA42F3DDA560434463
:10197000A560E068197B60F3040119732169187B85
:10198000490861F347101873E26822F01F025A6099
:10199000226922F01F021A6101360C37BEE700BF30
:1019A00090ED00E0100000205F01002070B50E4BAC
:1019B0000E461C780022234605460C480168C1F3F8
:1019C00007218B420BDB0A4B191D1868FFF766FED7
:1019D000224631462846BDE87040FFF7A1BE83602D
:1019E00002610133EAE700BF5F01002090ED00E0F3
:1019F00010000020014B1860704700BFB00E00209F
:101A0000074B03EB8000D0F8003223F44033C0F8DA
:101A10000032D0F8003243EA0141C0F800127047AA
:101A200000258450F8B5036801F01F049B680D463B
:101A30001B79494944EA43140023D1F804238668FA
:101A4000D2B203F5A27051F82000C0F30420844202
:101A500067D122FA03F0C00763D59A0002F1A042D1
:101A600002F55042D2F8100520F00100C2F810052E
:101A7000012202FA03F3C1F8083320460021FFF7E0
:101A8000BFFFB068E84010F0010049D0F068E840BE
:101A900010F0010044D07069E84010F001024CD011
:101AA000B369EB40DB0740D4336923FA05F2F369ED
:101AB00023FA05F505F0010502F00103AB420CBF66
:101AC000022501250021244E01F5A27356F82300BA
:101AD00010F003002BD18B0003F1A04303F5504716
:101AE000D7F81025240222F4473222F44072C7F8B6
:101AF0001025D7F8102504F4F85444EA054503F5F9
:101B000051431543C7F810551860D7F8103543F006
:101B10000103C7F81035012303FA01F1C6F80413D5
:101B2000F8BD0133082B8CD1A7E70325CAE70131A3
:101B30000829C9D16FF01200F2E7F1693369204634
:101B40004B4023FA05F515F0010F0CBF03210221CC
:101B5000FFF756FF1046E3E700D0005008B5094BE9
:101B60001A786AB901210D2019700521FFF77AFC56
:101B70000D20FFF753FC4FF00042034BC3F8042342
:101B8000002008BD6001002000D000502DE9F74F73
:101B90008046856803F47040B0F5804F1E4649D0FA
:101BA0002CDCB0F5805F3DD0B0F5405F3ED060BB2F
:101BB00006F44077B7F5807F3ED0A7F50074634206
:101BC0006341012919BFD4B2A1464FF01F09002477
:101BD0004FF0010B06F0010C4FEA4C0747EA0C07E7
:101BE00047EA0020DFF8C8A040EA830706F00203B6
:101BF000A14523D2002003B0BDE8F08FB0F5E04F3F
:101C000016D005DCB0F5A04F0ED06FF01500F2E74E
:101C1000B0F5404F04D0B0F5504FF6D10720C7E7DC
:101C20000620C5E70120C3E70320C1E70420BFE782
:101C30000520BDE70220BBE70323C2E7D8F8002058
:101C40009268117904F01F0242EA411280324AF888
:101C50002270A9680BFA04F2002B25D01143A96069
:101C60006969B0064CBF114391436961A969700667
:101C70004CBF11439143A961296970074CBF1143BF
:101C800091432961E96930064CBF0A4321EA020207
:101C9000EA61214640460193FFF7C4FE0028AAD11D
:101CA0000134E4B2019BA3E721EA0201D7E700BFB8
:101CB000002584502DE9F843454E3568012D5BD150
:101CC0002F464FF00009434A93681268DC69D2F846
:101CD0000880D3E902120A40D3E90510014322EA41
:101CE0000102D8F800101B6909695C404C4022EAE7
:101CF000040482BB3260002301279C46364ED6F88E
:101D0000042307FA03F1114211D003F1A05202F5A6
:101D1000515292001168012909D103F5A27056F8B9
:101D20002000C2F800C0C0F3042081400C430133FE
:101D3000082BE4D114B3274FBB681968F1B10E68C2
:101D40008B681C4203D04B68224638469847AEB198
:101D500031463668F4E73A420AD098F8043009F080
:101D60001F00002140EA4310FFF74AFE22EA070263
:101D700009F101097F00BCE70024BCE7012D0DD16A
:101D80000026144B9C681B689F68D4E902321A40F5
:101D9000D4E905310B4322EA03020AB9BDE8F8830E
:101DA000154212D0E169236997F804C04B40F34013
:101DB00013F0010F06F01F000CBF0321022140EABF
:101DC0004C10FFF71DFE22EA050201366D00E4E724
:101DD0007CD10050280F002000D0005070B54B7906
:101DE000012B23D18B79032B20D1CC792CB1012C61
:101DF0001CD103689B681B79C3B10A7912B1022A0E
:101E000014D10E2247F6122603689B681D680B68E2
:101E1000B3426BD027D8B3F5965F61D012D8B3F533
:101E2000167F4DD005D8B3F5967F74D06FF02200A1
:101E300052E0B3F5966F50D0B3F5166FF6D14FF46C
:101E40001D233FE0B3F5615F4CD004D8B3F5165FB6
:101E5000ECD1324B36E0B3F5964F45D0B3F5E14FB8
:101E6000E4D12F4B2EE0B3F5E13F48D012D84DF628
:101E7000C026B3423DD005D8B3F5164FD6D14FF4A6
:101E80001D031FE0B3F5614F36D0B3F5963FCDD1BA
:101E9000244B17E0B3F5E12F37D008D8B3F5613FF5
:101EA00030D0214EB342C1D14FF080630AE0B3F588
:101EB000612F2DD01D4EB342B8D14FF0805301E0B9
:101EC0004FF41C33C5F824358368224303C9C5F891
:101ED0006C2583E80300002070BD4FF49E23F1E7DA
:101EE000134BEFE7134BEDE7134BEBE74FF4000316
:101EF000E8E74FF46503E5E74FF46B03E2E74FF0E3
:101F0000EB73DFE74FF06C73DCE74FF0E863D9E782
:101F10004FF07063D6E74FF4A033D3E700502700AB
:101F200000C0750000903A0190D0030040420F00BD
:101F300000B0130000F03A0000A04E00026870B537
:101F40009268184B14684FF00052856803219A601C
:101F50001D260022C3F87412C3F87022C4F80C6561
:101F60001C26C4F814654FF000669E60C3F86C121E
:101F7000C3F868221B23C4F808351A232946C4F87D
:101F80001035FFF72BFF58B90823C4F800351D445E
:101F90000123C4F81001C4F83455C4F8383523605F
:101FA00070BD00BF0025845070B50026084B53F863
:101FB0002040013053F82050A54200D870BD23685E
:101FC00020465B68984700B166600C34F4E700BFB8
:101FD00084360000104B70B505461E460F4C9C42DF
:101FE00004D10E4CB44209D1002412E062681AB147
:101FF00022681268AA420CD00C34F0E763680BB96F
:102000000C34EFE723682846196800F0C8FE002862
:10201000F6D1204670BD00BF340F0020C80E00204E
:1020200008B50B4D4FF02002EFF3118382F31188B6
:10203000BFF36F8F01F0B4F8012104460228D8BF26
:10204000084601F0BDF82C62FEF7BAFFEAE700BFD0
:102050001C0100200248034A0021121A00F0D9BED8
:10206000000000206401002008B50648064A074920
:10207000121A00F0A1FEBDE80840054A05490648CD
:1020800000F09ABEA80E0020480F00209C3E0000E1
:10209000000000009C3E00000000002008B5022067
:1020A000FFF782FF074800F0E6FD0320FFF77CFF03
:1020B00000F09AFA00F0EAFB034A137B23F00103D5
:1020C000137308BD633E0000B000002080B5414B93
:1020D000A2B083F308880024E0223F4B012783F855
:1020E0002220DC771C765C769C76DC765A6A3B4E46
:1020F00042F4E0225A625A6A394D42F400225A628E
:102100009C63DA6892B242F0BF6242F40832DA604D
:10211000FFF77CF9FEF74EFF07AB21466C2218460D
:1021200000F077FEB06020468DF82970FFF73CFF85
:102130003846FFF739FF00F0EFF92A4B75624FF48C
:102140008062CDE90473CDE90244CDE90044264B19
:102150002649284600F02EFA6B7B344623F0040211
:1021600013F01B0F6A7304D1AB6913B9284600F052
:1021700001F91F4B012205930F23CDE90332002300
:102180001C4E4FF4A0721C493046CDE90133009338
:102190001A4B00F00FFA737BE66023F004037373AD
:1021A000174BC4E90633FFF74FFA0D48A56000F05E
:1021B000EEFD0D4B134A184682F3098863B64FF0C3
:1021C000000181F31188BFF36F8F002100220023EB
:1021D00000F0DBFBA80E002000ED00E01C01002059
:1021E000B0000020903E00009D200000680100200B
:1021F000953E0000440000206805002021200000DA
:102200003401002068050020EFF305800D2809D86F
:1022100028B1054B586880F40060C0F3C02080F0FE
:10222000010070470120FAE700ED00E008B5FEF775
:10223000D7FC054B054A1B6800211844106118465D
:10224000BDE8084000F0BCBF540100201C01002084
:10225000F8B50D464FF02003EFF3118483F3118896
:10226000BFF36F8F4FF40041002700220B4E0C4B41
:10227000C1FB00671A6130464FF4A02200233946A3
:10228000FDF760FF074B1860074B1D60FFF7CEFF9F
:1022900084F31188BFF36F8FF8BD00BFFFFF040008
:1022A0001C01002054010020500100204FF02003A9
:1022B000EFF3118183F31188BFF36F8F044B9A689A
:1022C000D37B013BD37381F31188BFF36F8F7047CA
:1022D0001C010020094B03F12802824205D19B68B2
:1022E0008B4202D14B7BDB0607D1D1E900231A6078
:1022F0000A6853600023C1E9003370471C010020C5
:1023000038B50D4C024604F1280000F0CCFE05461D
:1023100000B9E568A3684AB95A7BD20606D1AA6912
:1023200022B9DA897F2A01D9636238BD9D4201D082
:10233000FFF77CFF6562F8E71C01002010B54FF045
:102340002003EFF3118483F31188BFF36F8F084BE1
:1023500001209A68D37B0133D373FFF7D1FF84F355
:102360001188BFF36F8FBDE8104000F092BE00BF30
:102370001C010020F8B54FF02003EFF3118483F324
:102380001188BFF36F8F164A114651F8283F8B42D0
:102390000CD05BB1D66A90F90E5093F90E70AF4233
:1023A0000BDCB34202D01B68002BF6D1D36A01606C
:1023B0004360D36A1860D06205E05A68C0E9003211
:1023C0005A6810605860437B43F040034373002019
:1023D000FFF796FF84F31188BFF36F8FF8BD00BF3E
:1023E0001C010020F8B504464FF02003EFF31186DE
:1023F00083F31188BFF36F8F194F014607F128054A
:102400002846FFF767FFBB6A3A46AB420CD05BB188
:10241000F86A94F90E1093F90E708F420BDC834228
:1024200002D01B68002BF6D1D36A25606360D36AA3
:102430001C60D46205E05968C4E9003159680C6039
:102440005C60637B906843F040036373031B5842F6
:102450005841FFF755FF86F31188BFF36F8FF8BD22
:102460001C0100201449154A10B58B681468A3425A
:1024700003D1BDE81040FFF7D9BE00241460104A14
:102480001268BAB1DA897F2A14D80E4A93F90E403D
:10249000126894420EDB0C4A126893420AD09A6981
:1024A00042B90A69824203DC1846FFF79BFFE0E766
:1024B000121A0A6110BD00BF1C0100204C0100204F
:1024C00054010020500100209C36000038B504461D
:1024D0004FF02003EFF3118583F31188BFF36F8F63
:1024E000437B5A0607D501460948FFF7F3FE637B95
:1024F00023F040036373074B9868031B584258410D
:10250000FFF7FEFE85F31188BFF36F8F38BD00BF64
:10251000440100201C0100200021044B084603F167
:102520002802C3E90A22FFF793BE00BF1C01002066
:10253000014B9868704700BF1C010020EFF3058035
:102540000D2807D838B1044B586880F40060C0F3F8
:10255000C02070470120704700ED00E0024B9B68EF
:10256000187B00F0010070471C01002010B50246E6
:102570004FF02003EFF3118483F31188BFF36F8FC3
:10258000437B590704D484F31188BFF36F8F10BDC8
:1025900023F00403437300F0BDFD10B11046FFF7B4
:1025A000E9FE2146BDE81040014800F055BD00BFDE
:1025B0006101002030B587B00E9D044604950D9D45
:1025C00003950C9D02950B9D01950A9D0095FEF7C4
:1025D00061FF044B9B6813B9236607B030BD1B6EC7
:1025E000FAE700BF1C0100202DE9F04F284E294DCD
:1025F000B04687B0B54205F130040FD3FFF756FE61
:102600004FF400490027234C234EDFF890A04445A7
:1026100021D307B0BDE8F04FFFF790BE54F8043C5B
:10262000059354F8103C049354F8143C039354F865
:10263000183C029354F81C3C019354F8203C00933E
:1026400054E90A2354E90C01FFF7B4FF54F8303C75
:10265000DD642546CEE7616A4B1C04D0256821B9AC
:102660002846FFF783FF3034D1E7B346BC46C9FBA9
:1026700001BC4FF4A022002358466146FDF762FDDD
:102680005146421C05F1180000F052F8EBE700BF7C
:10269000340F0020340F0020FFFF0400B33000008F
:1026A000034B1B680BB9FEF79BBA0020704700BFB5
:1026B00058010020036840B1084A5268904204D093
:1026C0001BB19A6881680A449A6042681360036883
:1026D0005A600023C0E90033704700BFC00E0020DD
:1026E00038B5104B1B78002B0F4B18BF4FF0FF3045
:1026F0001C6808BF6FF000409C420AD04CB1A5682E
:10270000FFF7CEFF281A00280ADBA468FFF7C8FFEE
:10271000201A064B1B6913B19842A8BF184638BD52
:102720000020F6E761010020C00E00201C010020FF
:1027300070B504461646C1604FF02003EFF31185D3
:1027400083F31188BFF36F8FFFF7AAFF012EACBF91
:1027500080190130174BA0601A689A4201D05E6858
:1027600032B95A68236062605A6814605C600BE09A
:102770009068A168884216DD411A91605168C4E9E9
:10278000002151680C6054601A689A4206D0944245
:1027900004D1FFF7A5FF0021FEF7E8F985F31188C2
:1027A000BFF36F8F70BD091A9642A160D9D012682D
:1027B000D6E700BFC00E00202DE9F04B0446FFF71E
:1027C00051FE4FF02003EFF3118583F31188BFF31F
:1027D0006F8F214F214EB846DFF884903460D9F8CE
:1027E000004032684C45D7E900BC05D024B1A3684D
:1027F000934214DD9B1AA36000241BEB02004CEBF8
:10280000E271C8E900013460FFF76AFF2146FEF774
:10281000ADF985F31188BFF36F8FBDE8F08B1BEB2B
:1028200003004CEBE371D31A33600023C7E90001C6
:10283000A3602046FFF73EFF85F31188BFF36F8F3B
:10284000E36898474FF02003EFF3118583F3118875
:10285000BFF36F8FC3E700BF0000002058010020C6
:10286000C00E002038B5074C074DAC4201D3002004
:1028700038BD04F114032046C4E9053300F03AF8EA
:102880001C34F2E7340F0020340F002008B5FEF7A7
:102890005FFABDE80840FEF7EFB940E800F313F433
:1028A000803FD8B208BF6FF01500704770B50C2597
:1028B0004D43C66890F90B0074198842A8BF2146A1
:1028C0004FF0200492FBF4F4B8BF715902F01F00DE
:1028D00001EB8401196070BD07B501ABFFF7E6FF9E
:1028E0000123019A03FA00F013680343136003B055
:1028F0005DF804FB2DE9F8430446FF2200214FF068
:102900000C0E4368058900685D4394F80AC02844AA
:10291000E2728C4505DC00252389AB4222DCBDE850
:10292000F883B5FBF3F20EFB01F7D4F80C801F2AF5
:1029300008EB0706C8BF1F324FEA930306F10409EC
:10294000C8BF520903F10303C6E9019923F0030349
:10295000D4BFE17248F8070001F10101C8BF00EBE4
:102960008200D6E76268E3686A4320681E1D81180A
:1029700086509A6820464A609A68116099602A4693
:102980000021FFF7A9FF0135C6E708B50446084650
:1029900011461A46A047FFF7CBFDFEF703FE0020C5
:1029A000704770B50D4604464520A0472946522081
:1029B000A04729462346BDE87040522018472DE91C
:1029C000F04F4FF0000A06460F464FF0FF39D04651
:1029D00089B01C46531E0393002505E06DB92528D8
:1029E00000F03D813946B047039B13F8010F039374
:1029F0000028F3D109B0BDE8F08F642862D019D85F
:102A000039280AD8312851D22D283DD030283ED03F
:102A1000252808D13946B047DEE7582800F0A880BD
:102A2000632800F0168139462520B047039B3946BC
:102A30001878F0E7702800F0918006D8692841D016
:102A40006C283CD06828CFD0EDE775286DD017D81A
:102A50007328E8D1256804F1040B2B461C4614F8B2
:102A6000010B002840F0EC80B8F1030F40F000812A
:102A70005C1BA9EB0404002C00F3E6805C46ABE78A
:102A8000782875D07A28DEE74FF00308ACE7B9F173
:102A9000000F0EDAB8F1000F00F0E780A0F1300966
:102AA000B8F1000F08BF4FF002089DE7B9F1000F21
:102AB000F4DB0A2303FB0909A9F13009F0E70AF165
:102AC000010A91E7BAF1000F12D125680434002DF4
:102AD00005DA39462D20B0476D4209F1FF394346EA
:102AE0002A46CDF8009039463046FDF799FD73E748
:102AF000BAF1010FE9D04FF0000C4FF0FF3B073463
:102B000024F0070303F10804D3E9002312F1004085
:102B100043F100018C4508BF834504D23946304655
:102B2000FFF73FFF58E71546D1E7BAF1000F05D18F
:102B300022680434CDF800904346D4E7BAF1010F7F
:102B4000F6D0073424F0070303F10804D3E9002387
:102B5000002B08BFB2F1004FECD3DFE7394630203D
:102B6000B04739467820B0474FF008094FF00108C8
:102B7000BAF1010F27DC2368043407930023049380
:102B800010220023934602930693079B0BF1FF3B11
:102B90004FEA8B00C0F1200CA0F1200123FA00F0D5
:102BA000049B03FA0CFC40EA0C0023FA01F10843F1
:102BB00010F00F0013D1069B13B9BBF1000F2ED1FB
:102BC0004FF0300C11E0073424F007031A6803F1CA
:102BD00008045B6807920493D2E7059AD5E70928B1
:102BE0008CBF4FF0570C4FF0300C394660440592C3
:102BF000B047029B069501330293BBF1000FECD165
:102C0000B8F1030F7FF4E8AE029BC3EB4905002D3A
:102C10007FF7E2AE39462020B047013DF7E7531E6B
:102C200091450593E9DBB8F1010F03D13946302016
:102C3000B047E2E7B8F1020FDFD139462020F7E7CD
:102C40003946B047234609E739462020B047013CC2
:102C500011E72068251D3946B0472C46BCE6AA4638
:102C6000A8464FF0FF390125BEE64FF00108BBE64C
:102C70005C460546B8E60FB407B504A951F8040B45
:102C80000191FDF721FD03B05DF804EB04B070473E
:102C900070474FF0502330B5D3F80851D3F80423D0
:102CA000D3F8004102F00102D3F80413D3F8040171
:102CB00015B10025C3F80851B4B14FF050230024DA
:102CC000C3F8004122B14FF050230122C3F808237A
:102CD00048B100224FF05023C3F804218A0702D5DF
:102CE0000222C3F8082330BD002AF1D04FF0502350
:102CF000D3F80C3403F00113B3F1011FE8D1E2E77C
:102D000008B5002201210520FEF7ACFB0520FEF7E7
:102D100085FB002008BD70477047FEF757B943B2E6
:102D2000A9B1002B12DB01215B099B0003F1604379
:102D300003F56143D3F8802200F01F0001FA00F090
:102D400022EA0000C3F88002D3F880327047002BDB
:102D5000FCDB01225B099B0003F1604303F5614347
:102D6000D3F8801200F01F0002FA00F00843E9E7F0
:102D700001460068FEF7B8BB202383F31188704733
:102D800008B5FEF739FCBDE80840FEF7C7B807B53F
:102D9000002101A8FEF70AFE03B05DF804FB01382C
:102DA000013910F8013F11F8012F934202D1002B95
:102DB000F7D11A46981A7047F0B581EA0004A507C2
:102DC00003460BD0013B0A4491421DD1F0BD002ABD
:102DD000FCD011F8014B013A03F8014B9C07F6D1E6
:102DE0000C461D1F8F183E1B032E08D86FF00305DD
:102DF000940805FB0422A40023442144E2E754F88C
:102E0000046B45F8046FEEE711F8014B03F8014F2E
:102E1000DAE70346F0B5C9B29C070FD11D4641EA77
:102E2000012444EA04449F187E1B032E0CD8940806
:102E300003EB840413449C4209D1F0BD002AFCD06A
:102E400003F8011B013AE7E745F8044BECE704F807
:102E5000011BF0E74FF0FF30704710B50468806841
:102E6000A46801292468C06903D15840606000202B
:102E700010BD00334FF0010118BF0123D04000F016
:102E800001009140834214BFA160E160EFE770B59B
:102E900004688068A468C069256801296E692C6986
:102EA0006D6880EA040084EA050404EA060480EA06
:102EB00004001CBFD04000F001001860002070BD6D
:102EC000836830B5186858B10024814213D108686E
:102ED0005CB95C681860A14200D1586000200860AD
:102EE00072B9002030BD2846EFE720605868814263
:102EF00008BF5C60F2E705680446002DF3D13AB1E3
:102F00001A680A60586819600028EAD15960E9E730
:102F10006FF01500E6E701292DE9F04118BFD4B2A2
:102F2000064612BF25461F2500244FF0010887687A
:102F3000AC4202D90020BDE8F081FB6808FA04F237
:102F400023EA0203FB6021463046FEF76BFD0028B2
:102F5000F1D10134E4B2EBE701292DE9F04118BFCA
:102F6000D4B2064612BF25461F2500244FF00108A3
:102F70008768AC4202D90020BDE8F081FB6808FAFE
:102F800004F21343FB6021463046FEF74BFD002858
:102F9000F2D10134E4B2ECE70B46826892E8030018
:102FA00083E803000020704703689B681B68D3F820
:102FB000240118B1D3F88004C3F880047047036873
:102FC00082689B681B68D3F8100138B1127A002020
:102FD0000A700122C3F810011A6070474FF0FF30E9
:102FE000704782B002AA02F8011D002103689B68A5
:102FF0001B68C3F82011C3F844250122C3F84825F3
:103000009A60D3F820110029FBD0DA6002B0704733
:10301000FFF782BE437BDB0603BF8069B0FA80F016
:1030200040090020704738B504464FF02003EFF305
:10303000118583F31188BFF36F8F01468068FFF716
:1030400049F9637B23F00203637385F31188BFF3AF
:103050006F8F0023A36038BD08B5FFF7D5F820B106
:10306000BDE808400846FDF7EFBF81F31188BFF3C4
:103070006F8F08BD08B50246FFF7C6F820B1BDE85E
:1030800008401046FDF7E0BF82F31188BFF36F8F51
:1030900008BD4FF02003EFF3118083F31188BFF3D5
:1030A0006F8FFFF7E7BF0368984214BF18460020F0
:1030B000704750F8103C70B50446A0F11805CBB12C
:1030C0004FF02003EFF3118683F31188BFF36F8F66
:1030D000294650F8100CFFF7FDF814F80B3C23F0CC
:1030E000020304F80B3C86F31188BFF36F8F0023B3
:1030F00044F8103C14F80B3C284623F0140304F861
:103100000B3CFFF787FF20B12846BDE87040FFF772
:1031100031B970BD437BDB0603BF8069B0FA80F034
:10312000400900207047036D10B5044603B198476D
:103130002046FFF7EFFF38B12046FFF7C7F9637B62
:1031400043F00803637310BD637B9B0702D52046E1
:10315000FFF769FFA369002BF1D004F1180000F01C
:1031600009F8ECE70373002342738173C373C0E96A
:103170000633704710B54FF02002EFF3118482F34D
:103180001188BFF36F8F03683BB1FFF793FA0020FC
:1031900084F31188BFF36F8F10BD6FF01500F7E750
:1031A00010B54FF02003EFF3118483F31188BFF3C0
:1031B0006F8FFFF795FA84F31188BFF36F8F10BDFF
:1031C00070B504460E464FF02003EFF3118583F3EC
:1031D0001188BFF36F8FFFF783FAA04205DD012846
:1031E00003DD31462046FDF7C1FC85F31188BFF3AE
:1031F0006F8F70BD7047FFFFECCFFF7F01000000B5
:10320000000000001B2D0000000000001B2D00002E
:10321000000000001B2D0000000000001B2D00001E
:10322000000000001B2D000000000000932C000097
:10323000000000001B2D0000000000001B2D0000FE
:10324000000000001B2D0000000000001B2D0000EE
:10325000000000001B2D0000000000001B2D0000DE
:10326000000000001B2D000000000000B51C000045
:10327000000000001B2D0000000000001B2D0000BE
:10328000000000001B2D0000000000001B2D0000AE
:10329000000000001B2D0000000000001B2D00009E
:1032A000000000001B2D000000000000990A000033
:1032B000000000001B2D0000000000001B2D00007E
:1032C000000000001B2D0000000000001B2D00006E
:1032D000000000001B2D0000000000001B2D00005E
:1032E000000000001B2D0000000000001B2D00004E
:1032F000000000001B2D0000000000001B2D00003E
:10330000000000001B2D0000000000001B2D00002D
:10331000000000001B2D0000000000001B2D00001D
:10332000000000001B2D0000000000001B2D00000D
:10333000000000001B2D0000000000001B2D0000FD
:10334000000000001B2D0000000000001B2D0000ED
:10335000000000001B2D0000000000001B2D0000DD
:10336000000000001B2D0000000000001B2D0000CD
:10337000000000001B2D0000000000001B2D0000BD
:10338000000000001B2D0000000000001B2D0000AD
:10339000000000001B2D0000000000001B2D00009D
:1033A000000000001B2D0000000000001B2D00008D
:1033B000000000001B2D0000000000001B2D00007D
:1033C000000000001B2D0000000000001B2D00006D
:1033D000000000001B2D0000000000001B2D00005D
:1033E000000000001B2D0000000000001B2D00004D
:1033F000000000001B2D0000000000001B2D00003D
:10340000000000001B2D0000DC360000E906000073
:1034100000000000DC360000DD08000000000000B5
:10342000B6360000012D000000000000C03600008C
:10343000012D000000000000CA360000E90A00006B
:1034400000000000DC360000A118000000000000B1
:103450005C3E00005D1B000060360000AF360000DF
:103460003D1F00007C360000DC36000065280000AF
:1034700000000000020000007C340000000000009A
:10348000A036000006000000E0FF0F000000002052
:10349000A836000021000000E0FF00206D090000B8
:1034A0000000000000000000D5090000F90800003D
:1034B00000000000170100000701000007010000E4
:1034C00007010000070100000701000007010000DC
:1034D00007010000070100000701000007010000CC
:1034E00007010000070100000701000007010000BC
:1034F00007010000070100000701000007010000AC
:10350000070100000701000007010000070100009B
:10351000070100000701000007010000070100008B
:10352000070100000701000007010000070100007B
:103530000701000016380000420100001D3800009D
:103540000501000027380000150100003038000098
:10355000390100003938000009010000443800003A
:103560000A0000004F3800002A0100005738000010
:103570003A0100005F3800002C01000067380000AD
:103580001C010000703800001D01000079380000A7
:103590000A010000833800000B0100008D38000094
:1035A0000F0100009838000010010000A33800004F
:1035B00011010000AE3800000E010000B838000014
:1035C0003101000017010000170100001701000081
:1035D000170100001701000017010000170100008B
:1035E00017010000070100000701000007010000AB
:1035F00007010000070100000701000007010000AB
:10360000070100000701000007010000070100009A
:10361000070100000701000007010000070100008A
:10362000070100000701000007010000070100007A
:10363000070100000701000007010000070100006A
:10364000070100008D1B00005B2E00008F2E000084
:10365000C12E0000592F0000172F000000000000AD
:103660000025845000000000BF2F0000E32F000061
:10367000A92F0000DD1D0000992F000000800050E0
:1036800001000000C80E00201C0F0020280F0020A1
:10369000340F0020340F0020F5FFFFFF440000200E
:1036A000464C4153485F30005352414D5F30005506
:1036B0004152545F3000434C4F434B5F33324B0019
:1036C000434C4F434B5F31364D007379735F636CEE
:1036D0006F636B005365637572650909004E6F6E09
:1036E0002D53656375726509004E6F6E2D536563CA
:1036F00075726500466C61736820726567696F6EEC
:103700000909446F6D61696E09095065726D6973CD
:1037100073696F6E730A002530327520307825305A
:10372000357820307825303578200900256300531E
:1037300052414D20726567696F6E0909446F6D6172
:10374000696E09095065726D697373696F6E730AEA
:1037500000253032752030782530357820307825B6
:1037600030357809005065726970686572616C095E
:1037700009446F6D61696E09095374617475730A48
:103780000025303275202573090925730009534B34
:1037900049500A00094552524F520A00094F4B0A3C
:1037A0000053504D3A204E5320696D61676520618A
:1037B0007420307825780A0053504D3A204E53201B
:1037C0004D535020617420307825780A0053504DB5
:1037D0003A204E5320726573657420766563746F6A
:1037E0007220617420307825780A0053504D3A20B9
:1037F0007072657061726520746F206A756D7020DB
:10380000746F204E6F6E2D53656375726520696D00
:103810006167652E0A004E52465F5030004E524698
:103820005F434C4F434B004E52465F52544331006E
:103830004E52465F4E564D43004E52465F554152E2
:10384000544531004E52465F554152544532004E68
:1038500052465F495043004E52465F564D43004E1C
:1038600052465F465055004E52465F45475531001F
:103870004E52465F45475532004E52465F545749B7
:103880004D32004E52465F5350494D33004E524622
:103890005F54494D455230004E52465F54494D45A4
:1038A0005231004E52465F54494D455232004E52FD
:1038B000465F5341414443004E52465F4750494F93
:1038C000544531002A2A2A2A2A20425553204641AB
:1038D000554C54202A2A2A2A2A0A0020205374618F
:1038E000636B696E67206572726F720A00202050E8
:1038F0007265636973652064617461206275732009
:103900006572726F720A0020204246415220416463
:1039100064726573733A20307825780A0020204954
:103920006D7072656369736520646174612062758E
:1039300073206572726F720A002020496E73747270
:10394000756374696F6E20627573206572726F7231
:103950000A002A2A2A2A2A204D5055204641554C31
:1039600054202A2A2A2A2A0A002020537461636BD1
:10397000696E67206572726F722028636F6E74655E
:1039800078742061726561206D6967687420626572
:10399000206E6F742076616C6964290A00202055BE
:1039A0006E737461636B696E67206572726F720A01
:1039B0000020204461746120416363657373205665
:1039C000696F6C6174696F6E0A0020204D4D46412D
:1039D0005220416464726573733A20307825780A06
:1039E000002020496E737472756374696F6E204194
:1039F00063636573732056696F6C6174696F6E0AD7
:103A0000002020466C6F6174696E672D706F696E5F
:103A100074206C617A7920737461746520707265AA
:103A2000736572766174696F6E206572726F720A67
:103A3000002A2A2A2A2A2053454355524520464126
:103A4000554C54202A2A2A2A2A0A0020204164643C
:103A5000726573733A20307825780A002020496E09
:103A600076616C696420656E74727920706F696E1E
:103A7000740A002020496E76616C696420696E7456
:103A8000656772697479207369676E6174757265B0
:103A90000A002020496E76616C6964206578636550
:103AA0007074696F6E2072657475726E0A002020E2
:103AB0004174747269627574696F6E20756E697491
:103AC0002076696F6C6174696F6E0A002020496E00
:103AD00076616C6964207472616E736974696F6E6B
:103AE0000A0020204C617A7920737461746520701B
:103AF0007265736572766174696F6E0A0020204C7E
:103B0000617A79207374617465206572726F720ACC
:103B1000002A2A2A2A2A2055534147452046415542
:103B20004C54202A2A2A2A2A0A002020446976692D
:103B300073696F6E206279207A65726F0A002020A7
:103B4000556E616C69676E6564206D656D6F727925
:103B5000206163636573730A002020537461636B93
:103B6000206F766572666C6F772028636F6E746560
:103B700078742061726561206E6F742076616C6963
:103B800064290A0020204E6F20636F70726F636596
:103B900073736F7220696E737472756374696F6E7C
:103BA000730A002020496C6C6567616C206C6F6142
:103BB00064206F66204558435F52455455524E204D
:103BC000696E746F2050430A002020496C6C656751
:103BD000616C20757365206F6620746865204550A0
:103BE00053520A002020417474656D707420746F04
:103BF000206578656375746520756E646566696EA9
:103C0000656420696E737472756374696F6E0A00FF
:103C10005265736572766564204578636570746972
:103C20006F6E20280053707572696F757320696E0E
:103C300074657272757074202849525120002020DA
:103C40005320696E737472756374696F6E2061645A
:103C500064726573733A2020307825780A005245E3
:103C600054544F4241534520646F6573206E6F7406
:103C7000206D61746368204558435F524554555226
:103C80004E0A002A2A2A2A2A204841524420464124
:103C9000554C54202A2A2A2A2A0A002020427573C9
:103CA000206661756C74206F6E20766563746F7228
:103CB000207461626C6520726561640A0020204690
:103CC00061756C7420657363616C6174696F6E20DB
:103CD000287365652062656C6F77290A002A2A2A95
:103CE0002A2A204465627567206D6F6E69746F7251
:103CF00020657863657074696F6E20286E6F74201C
:103D0000696D706C656D656E74656429202A2A2A58
:103D10002A2A0A002A2A2A2A2A20257320256429E9
:103D2000202A2A2A2A2A0A002A2A2A2A2A204861FC
:103D300072647761726520657863657074696F6E0F
:103D4000202A2A2A2A2A0A002A2A2A2A204B65728D
:103D50006E656C20416C6C6F636174696F6E204698
:103D600061696C75726521202A2A2A2A0A002A2A8A
:103D70002A2A2A204B65726E656C204F4F505321C2
:103D8000202A2A2A2A2A0A002A2A2A2A2A204B6595
:103D9000726E656C2050616E696321202A2A2A2A7E
:103DA0002A0A002A2A2A2A20556E6B6E6F776E2007
:103DB000466174616C204572726F72202564212007
:103DC0002A2A2A2A0A0043757272656E7420746862
:103DD00072656164204944203D2025700A46617562
:103DE0006C74696E6720696E737472756374696F41
:103DF0006E2061646472657373203D20307825788D
:103E00000A0049535200657373656E7469616C20D2
:103E100074687265616400466174616C20666175E6
:103E20006C7420696E20257321205370696E6E6951
:103E30006E672E2E2E0A00466174616C20666175D5
:103E40006C7420696E20746872656164202570212D
:103E50002041626F7274696E672E0A004750494FA5
:103E60005F30002A2A2A2A2A20426F6F74696E67FF
:103E7000205A6570687972204F532076312E313484
:103E80002E39392D6E637331202A2A2A2A2A0A00F4
:103E90006D61696E0069646C650000009F29000017
:103EA0000090D003552E000000C201000001030065
:103EB00000000000C00E0020C00E002008340000EA
:103EC0000000000000000000683400000000000056
:103ED000000000004434000000000000000000006A
:103EE000203400009C340000000000002C3400004E
:103EF000A8340000000000005C34000068360000B8
:103F0000B40E002014340000000000000000000087
:103F100038340000000000000000000050340000B1
:103F20004436000024000020340F0020340F00200D
:0C3F300000000000000000000F00000076
:10800000E0A40220C904010019A602006DFE0000D0
:108010006DFE00006DFE00006DFE00006DFE0000B4
:108020006DFE00006DFE00006DFE000031FE0000E0
:108030006DFE00006DFE0000C5FD000025FA000089
:1080400091FE000091FE000091FE000091FE0000F4
:1080500091FE000091FE000091FE000091FE0000E4
:1080600091FE000091FE000091FE000091FE0000D4
:1080700091FE000091FE000091FE000091FE0000C4
:1080800091FE000091FE000091FE000091FE0000B4
:1080900091FE000091FE000091FE000091FE0000A4
:1080A00091FE000091FE000091FE000091FE000094
:1080B000F5200100D3AB020091FE000091FE00000C
:1080C00091FE000091FE000091FE000091FE000074
:1080D00091FE000091FE000091FE000091FE000064
:1080E00091FE000091FE0000F5AB020091FE000041
:1080F00091FE000091FE000091FE000091FE000044
:1081000091FE000091FE000091FE000091FE000033
:1081100091FE000091FE000091FE000091FE000023
:1081200091FE000091FE000091FE000091FE000013
:1081300091FE000091FE000091FE000091FE000003
:1081400091FE0000FFFFFFFF81F0004102E000BF51
:1081500083F0004330B54FEA41044FEA430594EA07
:10816000050F08BF90EA020F1FBF54EA000C55EA42
:10817000020C7FEA645C7FEA655C00F0E2804FEA13
:108180005454D4EB5555B8BF6D420CDD2C4480EAF5
:10819000020281EA030382EA000083EA010180EA25
:1081A000020281EA0303362D88BF30BD11F0004F73
:1081B0004FEA01314FF4801C4CEA113102D04042A9
:1081C00061EB410113F0004F4FEA03334CEA1333E4
:1081D00002D0524263EB430394EA050F00F0A780FC
:1081E000A4F10104D5F1200E0DDB02FA0EFC22FAF7
:1081F00005F2801841F1000103FA0EF2801843FAEB
:1082000005F359410EE0A5F120050EF1200E012ADB
:1082100003FA0EFC28BF4CF0020C43FA05F3C01819
:1082200051EBE37101F0004507D54FF0000EDCF192
:10823000000C7EEB00006EEB0101B1F5801F1BD33B
:10824000B1F5001F0CD349085FEA30004FEA3C0C3F
:1082500004F101044FEA445212F5800F80F09A8035
:10826000BCF1004F08BF5FEA500C50F1000041EB39
:10827000045141EA050130BD5FEA4C0C404141EB3D
:10828000010111F4801FA4F10104E9D191F0000F64
:1082900004BF01460020B1FA81F308BF2033A3F1E7
:1082A0000B03B3F120020CDA0C3208DD02F1140CDE
:1082B000C2F10C0201FA0CF021FA02F10CE002F119
:1082C0001402D8BFC2F1200C01FA02F120FA0CFC12
:1082D000DCBF41EA0C019040E41AA2BF01EB04515B
:1082E000294330BD6FEA04041F3C1CDA0C340EDC59
:1082F00004F11404C4F1200220FA04F001FA02F39C
:1083000040EA030021FA04F345EA030130BDC4F159
:108310000C04C4F1200220FA02F001FA04F340EA4E
:108320000300294630BD21FA04F0294630BD94F0FF
:10833000000F83F4801306BF81F480110134013DE6
:108340004EE77FEA645C18BF7FEA655C29D094EA57
:10835000050F08BF90EA020F05D054EA000C04BFD5
:108360001946104630BD91EA030F1EBF00210020C0
:1083700030BD5FEA545C05D14000494128BF41F05F
:10838000004130BD14F580043CBF01F5801130BDC3
:1083900001F0004545F0FE4141F470014FF000004E
:1083A00030BD7FEA645C1ABF194610467FEA655CFF
:1083B0001CBF0B46024650EA013406BF52EA0335A1
:1083C00091EA030F41F4002130BD00BF90F0000F8F
:1083D00004BF0021704730B54FF4806404F13204CB
:1083E0004FF000054FF0000150E700BF90F0000F84
:1083F00004BF0021704730B54FF4806404F13204AB
:1084000010F0004548BF40424FF000013EE700BF7A
:1084100042004FEAE2014FEA31014FEA02701FBF0A
:1084200012F07F4393F07F4F81F06051704732F03C
:108430007F4208BF704793F07F4F04BF41F4002193
:10844000704730B54FF4607401F0004521F00041F1
:108450001CE700BF50EA010208BF704730B54FF07B
:1084600000050AE050EA010208BF704730B511F07C
:10847000004502D5404261EB41014FF4806404F1B4
:1084800032045FEA915C3FF4D8AE4FF003025FEA3A
:10849000DC0C18BF03325FEADC0C18BF033202EBBE
:1084A000DC02C2F1200300FA03FC20FA02F001FA18
:1084B00003FE40EA0E0021FA02F11444BDE600BFBB
:1084C00070B54FF0FF0C4CF4E06C1CEA11541DBF6A
:1084D0001CEA135594EA0C0F95EA0C0F00F0DEF835
:1084E0002C4481EA030621EA4C5123EA4C5350EA1A
:1084F000013518BF52EA033541F4801143F480136B
:1085000038D0A0FB02CE4FF00005E1FB02E506F0FB
:108510000042E0FB03E54FF00006E1FB03569CF050
:10852000000F18BF4EF0010EA4F1FF04B6F5007F56
:1085300064F5407404D25FEA4E0E6D4146EB0606C8
:1085400042EAC62141EA55514FEAC52040EA5E5051
:108550004FEACE2EB4F1FD0C88BFBCF5E06F1ED8FB
:10856000BEF1004F08BF5FEA500E50F1000041EB32
:10857000045170BD06F0004646EA010140EA0200DF
:1085800081EA0301B4EB5C04C2BFD4EB0C0541EA01
:10859000045170BD41F480114FF0000E013C00F316
:1085A000AB8014F1360FDEBF002001F0004170BD3A
:1085B000C4F10004203C35DA0C341BDC04F1140453
:1085C000C4F1200500FA05F320FA04F001FA05F2DF
:1085D00040EA020001F0004221F0004110EBD370AC
:1085E00021FA04F642EB06015EEA430E08BF20EAD8
:1085F000D37070BDC4F10C04C4F1200500FA04F37B
:1086000020FA05F001FA04F240EA020001F000410C
:1086100010EBD37041F100015EEA430E08BF20EA7F
:10862000D37070BDC4F1200500FA05F24EEA020EC7
:1086300020FA04F301FA05F243EA020321FA04F0F6
:1086400001F0004121FA04F220EA020000EBD370AD
:108650005EEA430E08BF20EAD37070BD94F0000FAD
:108660000FD101F00046400041EB010111F4801FE1
:1086700008BF013CF7D041EA060195F0000F18BF92
:10868000704703F00046520043EB030313F4801FCE
:1086900008BF013DF7D043EA0603704794EA0C0F88
:1086A0000CEA135518BF95EA0C0F0CD050EA41069E
:1086B00018BF52EA4306D1D181EA030101F000411B
:1086C0004FF0000070BD50EA410606BF1046194643
:1086D00052EA430619D094EA0C0F02D150EA01364F
:1086E00013D195EA0C0F05D152EA03361CBF104690
:1086F00019460AD181EA030101F0004141F0FE412F
:1087000041F470014FF0000070BD41F0FE4141F4B2
:10871000780170BD70B54FF0FF0C4CF4E06C1CEAB2
:1087200011541DBF1CEA135594EA0C0F95EA0C0F67
:1087300000F0A7F8A4EB050481EA030E52EA033522
:108740004FEA013100F088804FEA03334FF0805543
:1087500045EA131343EA12634FEA022245EA111570
:1087600045EA10654FEA00260EF000419D4208BF21
:10877000964244F1FD0404F5407402D25B084FEACE
:108780003202B61A65EB03055B084FEA32024FF47A
:1087900080104FF4002CB6EB020E75EB030E22BFD7
:1087A000B61A754640EA0C005B084FEA3202B6EB97
:1087B000020E75EB030E22BFB61A754640EA5C0046
:1087C0005B084FEA3202B6EB020E75EB030E22BFD6
:1087D000B61A754640EA9C005B084FEA3202B6EBD7
:1087E000020E75EB030E22BFB61A754640EADC0096
:1087F00055EA060E18D04FEA051545EA16754FEAF8
:1088000006164FEAC30343EA52734FEAC2025FEA15
:108810001C1CC0D111F4801F0BD141EA00014FF0A4
:1088200000004FF0004CB6E711F4801F04BF014375
:108830000020B4F1FD0C88BFBCF5E06F3FF6AFAE91
:10884000B5EB030C04BFB6EB020C5FEA500C50F121
:10885000000041EB045170BD0EF0004E4EEA1131A4
:1088600014EB5C04C2BFD4EB0C0541EA045170BDAB
:1088700041F480114FF0000E013C90E645EA060EEF
:108880008DE60CEA135594EA0C0F08BF95EA0C0F1D
:108890003FF43BAF94EA0C0F0AD150EA01347FF465
:1088A00034AF95EA0C0F7FF425AF104619462CE73C
:1088B00095EA0C0F06D152EA03353FF4FDAE10469F
:1088C000194622E750EA410618BF52EA43067FF4F0
:1088D000C5AE50EA41047FF40DAF52EA43057FF480
:1088E000EBAE12E74FF0FF3C06E000BF4FF0010C8B
:1088F00002E000BF4FF0010C4DF804CD4FEA410CEF
:108900007FEA6C5C4FEA430C18BF7FEA6C5C1BD0BB
:1089100001B050EA410C0CBF52EA430C91EA030F3C
:1089200002BF90EA020F0020704710F1000F91EA99
:10893000030F58BF994208BF90422CBFD8176FEA67
:10894000E37040F0010070474FEA410C7FEA6C5C35
:1089500002D150EA013C07D14FEA430C7FEA6C5C3C
:10896000D6D152EA033CD3D05DF8040B704700BF68
:108970008446104662468C461946634600E000BFB6
:1089800001B5FFF7B7FF002848BF10F1000F01BD88
:108990004DF808EDFFF7F4FF0CBF012000205DF853
:1089A00008FB00BF4DF808EDFFF7EAFF34BF0120D8
:1089B00000205DF808FB00BF4DF808EDFFF7E0FF71
:1089C00094BF012000205DF808FB00BF4DF808EDC2
:1089D000FFF7CEFF94BF012000205DF808FB00BF29
:1089E0004DF808EDFFF7C4FF34BF012000205DF80B
:1089F00008FB00BF4FEA410212F5001215D211D553
:108A00006FF47873B3EB625212D94FEAC12343F08B
:108A1000004343EA505311F0004F23FA02F018BF0D
:108A2000404270474FF00000704750EA013005D1D6
:108A300011F0004008BF6FF0004070474FF0000099
:108A4000704700BF4FEA4102B2F1E04324BFB3F5E3
:108A5000001CDCF1FE5C0DD901F0004C4FEAC002B5
:108A60004CEA5070B2F1004F40EB830008BF20F099
:108A70000100704711F0804F21D113F13872BCBF53
:108A800001F00040704741F480114FEA5252C2F1A8
:108A90001802C2F1200C10FA0CF320FA02F018BFF1
:108AA00040F001004FEAC1234FEAD32303FA0CFC44
:108AB00040EA0C0023FA02F34FEA4303CCE77FEAD3
:108AC000625307D150EA01331EBF4FF0FE4040F41D
:108AD0004000704701F0004040F0FE4040F40000CC
:108AE000704700BF7BB972B90029BEBF00204FF0AC
:108AF000004106E008BF00281CBF6FF000414FF0A6
:108B0000FF3000F0C7B9ADF1080C6DE904CE0029C3
:108B100009DB002B1ADB00F04DF8DDF804E0DDE99D
:108B2000022304B07047404261EB4101002B1BDB84
:108B300000F040F8DDF804E0DDE9022304B0404233
:108B400061EB4101524263EB43037047524263EBD6
:108B5000430300F02FF8DDF804E0DDE9022304B060
:108B6000404261EB41017047524263EB430300F026
:108B700021F8DDF804E0DDE9022304B0524263EBA2
:108B80004303704753B94AB9002908BF00281CBFE6
:108B90004FF0FF314FF0FF3000F07CB9ADF1080C21
:108BA0006DE904CE00F006F8DDF804E0DDE902230B
:108BB00004B070472DE9F0478C46089D04468A466C
:108BC000002B4AD18A42174662D9B2FA82F64EB1D8
:108BD000C6F1200E01FA06F3B740B44020FA0EFEAB
:108BE0004EEA030A4FEA1748230C1FFA87F9BAFB2B
:108BF000F8FE08FB1EAA0EFB09F243EA0A439A425A
:108C00000BD9FB180EF1FF312CBF012000209A4236
:108C100002D9002800F02A818E469A1AA3B2B2FB2C
:108C2000F8F008FB102200FB09F943EA0244A145D1
:108C300007D93C1900F1FF3302D2A14500F210819F
:108C40001846A4EB090440EA0E4000211DB1F4408F
:108C50000023C5E90043BDE8F0878B4208D9002D09
:108C600000F0F2800021C5E9000C0846BDE8F0875D
:108C7000B3FA83F100294ED16345C0F0E880824207
:108C800040F2E5800846002DE5D0C5E9004AE2E75C
:108C900002B9FFDEB2FA82F6002E40F099808B1AFC
:108CA0004FEA124E1FFA82F801214FEA144CB3FB2F
:108CB000FEF20EFB123008FB02F94CEA004CE145D3
:108CC00008D917EB0C0C02F1FF3302D2E14500F298
:108CD000CA801A46ACEB090CA3B2BCFBFEF00EFB3B
:108CE00010CC08FB00F843EA0C44A0450ED93C190F
:108CF00000F1FF332CBF4FF0010C4FF0000CA045EA
:108D000003D9BCF1000F00F0A8801846A4EB0804BA
:108D100040EA02409AE7C1F120048B4002FA01FECA
:108D20000CFA01F6E24020FA04F72CFA04FC00FAEF
:108D300001F813433E431F0C320C1FFA83F9BCFBAE
:108D4000F7F007FB10CC00FB09FA42EA0C4CE245B5
:108D500008D913EB0C0C00F1FF3202D2E24500F20D
:108D600089801046ACEB0A0CB6B2BCFBF7FA07FBE5
:108D70001ACC0AFB09F946EA0C42914506D99A1821
:108D80000AF1FF3601D291457AD8B2464AEA00404C
:108D9000A2EB0902A0FB0E67BA42B446B94602D361
:108DA00007D1B04505D2B6EB0E0C67EB03030138D3
:108DB0009946002D6BD0B8EB0C0362EB090202FA66
:108DC00004F4CB40CA4000211C43C5E9004242E7FD
:108DD000B740C6F1200201FA06F3B44021FA02FCC2
:108DE0004FEA174E20FA02F21FFA87F8BCFBFEF199
:108DF0001A430EFB11CC01FB08F0130C43EA0C4C98
:108E0000604507D917EB0C0C01F1FF3301D2604527
:108E100033D81946ACEB000C92B2BCFBFEF00EFB53
:108E200010CC00FB08F342EA0C4C634507D917EB62
:108E30000C0C00F1FF3201D2634525D81046ACEB93
:108E4000030340EA014130E72946284603E7841A34
:108E50006CEB030301209A4615E702383C4455E7C2
:108E600002383C44EDE6023ABC4433E7AEF1020E70
:108E70003B44D2E602389C4474E70239BC44C9E75B
:108E8000AAF1020A1A4481E70238BC44D7E729460E
:108E9000E1E600BF704700BF844641EA000313F0DB
:108EA000030349D1403A23D30B6803604B68436006
:108EB0008B688360CB68C3600B6903614B69436156
:108EC0008B698361CB69C3610B6A03624B6A43623E
:108ED0008B6A8362CB6AC3620B6B03634B6B436326
:108EE0008B6B8363CB6BC36340304031403ADBD242
:108EF00030320BD30B6803604B6843608B68836030
:108F0000CB68C36010301031103AF3D20C3205D365
:108F100051F8043B40F8043B043AF9D2043208D03B
:108F2000D2071CBF11F8013B00F8013B01D30B88AD
:108F300003806046704700BF082A13D38B07B1D067
:108F400010F00303AED0C3F10403D21ADB071CBF39
:108F500011F8013B00F8013BA4D331F8023B20F8A3
:108F6000023B9FE7043AD9D3013A11F8013B00F8DC
:108F7000013BF9D20B7803704B7843708B78837088
:108F80006046704780EA010C1CF0030F37D110F0E7
:108F9000030C20F0030021F0030150F8042B08BF5C
:108FA00051F8043B0ED08CF0030C6FF07F434FEA76
:108FB000CC0C23FA0CFC51F8043B42EA0C0243EAC5
:108FC0000C0300BFA2F1013C9A4201BF2CEA020C43
:108FD0001CF0803F50F8042B51F8043BF2D04FEACC
:108FE00002604FEA1222012828BFB0EB036F08BFCE
:108FF0001B0AF4D003F0FF03000EC01A704710F0F4
:10900000030F0AD010F8012B11F8013B012A28BFE9
:109010009A42F4D0A2EB030070474DF8045D50F87B
:10902000042B01F0030521F0030151F8043B022D4C
:1090300026D04DD822F07F45B5EB132FA2F1013C8D
:109040002CEA020C0DD11CF0803C08BF51F8043B07
:109050000AD185EA0205B5EB036F0CD150F8042B59
:10906000E8E74FEA13235BE03CF07F4C54D10B78E8
:109070004FEA126554E04FEA126503F0FF034FE038
:109080004FEA0245A2F1013C4FEA15452CEA020CD9
:10909000B5EB134F18D11CF0803C08BF51F8043BCE
:1090A00007D185EA0205B5EB034F09D150F8042B2F
:1090B000E6E75FEA0C4C2FD10B884FEA12452FE010
:1090C0004FEA03434FEA12454FEA134328E000BF3B
:1090D00002F0FF05B5EB136FA2F1013C2CEA020C84
:1090E0000DD11CF0803C08BF51F8043B0AD185EA41
:1090F0000205B5EB032F0AD150F8042BE8E74FEA3D
:1091000013630DE012F0FF0F06D051F8043B4FEA55
:10911000122523F07F4303E04FF0000020BC70478E
:1091200005F0FF0203F0FF00012828BF904204BFB2
:109130002D0A1B0AF4D0A2EB000020BC704700BF30
:109140004FEA410C7FEA6C5C02D150EA013C0AD143
:109150004FEA430C7FEA6C5C02D152EA033C02D135
:109160004FF0000070474FF00100704770B491E875
:109170007800B2E802105B1854EB0C04B2E802105D
:109180004D4156EB0C0680E878008041013070BC00
:10919000704770B491E87800B2E802105B1A74EB83
:1091A0000C04B2E802108D4176EB0C0680E87800E2
:1091B0008041404270BC70472DE9F00791E8F80704
:1091C000B2E802105B1854EB0C04B2E802104D41F7
:1091D00056EB0C06B2E802104F4158EB0C08B2E80F
:1091E000021059EB01095AEB0C0A80E8F80780419C
:1091F0000130BDE8F00770472DE9F00791E8F80766
:10920000B2E802105B1A74EB0C04B2E802108D4154
:1092100076EB0C06B2E802108F4178EB0C08B2E84E
:10922000021079EB01097AEB0C0A80E8F80780411B
:109230004042BDE8F00770472DE9F007524290E840
:109240007800B1E880071740DB1918EA020854EBF0
:10925000080419EA020955EB09051AEA020A56EB55
:109260000A0678C090E87800B1E8800717407B4193
:1092700018EA020854EB080419EA020955EB09053B
:109280001AEA020A56EB0A0678C080410130BDE8AE
:10929000F00770472DE9F007524290E87800B1E8F6
:1092A00080071740DB1B18EA020874EB080419EA70
:1092B000020975EB09051AEA020A76EB0A0678C07C
:1092C00090E87800B1E880071740BB4118EA02082F
:1092D00074EB080419EA020975EB09051AEA020A97
:1092E00076EB0A0678C080414042BDE8F00770473F
:1092F00090E8300091E8C000A31B1340E41AF61870
:10930000EB1B1340ED1AFF1830C0C0C17047F0B519
:109310005242FFF7EDFFFFF7EBFFFFF7E9FFFFF723
:10932000E7FFF0BD2DE9F0073AC91668A1FB069AE0
:109330004FF0000CE3FB06AC4FF00007E4FB06C760
:109340004FF00008E5FB067840F8049B56684FF0A4
:109350000009E1FB06A91CEB090C4FF0000949EBE1
:109360000909E3FB06C917EB09074FF0000949EBB0
:109370000909E4FB067918EB09084FF0000949EBED
:109380000909E5FB068940F804AB96684FF0000A2E
:10939000E1FB06CA17EB0A074FF0000A4AEB0A0A7C
:1093A000E3FB067A18EB0A084FF0000A4AEB0A0AB8
:1093B000E4FB068A19EB0A094FF0000A4AEB0A0A95
:1093C000E5FB069A40F804CBD6684FF0000CE1FBB1
:1093D000067C18EB0C084FF0000C4CEB0C0CE3FB7C
:1093E000068C19EB0C094FF0000C4CEB0C0CE4FB59
:1093F000069C1AEB0C0A4FF0000C4CEB0C0CE5FB36
:1094000006AC80E88017BDE8F00770470A462DE9F2
:10941000F04F41EC140A92EC080A1EC910EE100A33
:10942000A1FB00784FF00009E2FB00894FF0000A31
:10943000E3FB009A4FF0000BE4FB00AB12EE100AC6
:109440004FF0000CE1FB00BC4FF0000EE2FB00CE41
:109450004FF00005E3FB00E54FF00006E4FB00568B
:1094600005EE107A10EE900A4FF00007E1FB00873E
:1094700019EB07094FF0000747EB0707E2FB0097DE
:109480001AEB070A4FF0000747EB0707E3FB00A7BB
:109490001BEB070B4FF0000747EB0707E4FB00B798
:1094A00012EE900A1CEB070C4FF0000747EB070782
:1094B000E1FB00C71EEB070E4FF0000747EB070765
:1094C000E2FB00E7ED194FF0000747EB0707E3FB6E
:1094D0000057F6194FF0000747EB0707E4FB00675A
:1094E00005EE908A11EE100A4FF00008E1FB00989B
:1094F0001AEB080A4FF0000848EB0808E2FB00A846
:109500001BEB080B4FF0000848EB0808E3FB00B822
:109510001CEB080C4FF0000848EB0808E4FB00C8FF
:1095200013EE100A1EEB080E4FF0000848EB080877
:10953000E1FB00E815EB08054FF0000848EB0808D0
:10954000E2FB005816EB08064FF0000848EB08084D
:10955000E3FB006817EB08074FF0000848EB08082A
:10956000E4FB007806EE109A11EE900A4FF0000925
:10957000E1FB00A91BEB090B4FF0000949EB0909BE
:10958000E2FB00B91CEB090C4FF0000949EB09099B
:10959000E3FB00C91EEB090E4FF0000949EB090976
:1095A000E4FB00E913EE900A15EB09054FF0000902
:1095B00049EB0909E1FB005916EB09064FF00009D8
:1095C00049EB0909E2FB006917EB09074FF00009B5
:1095D00049EB0909E3FB007918EB09084FF0000992
:1095E00049EB0909E4FB008906EE90AA14EE901AF3
:1095F00001F110011EC910EE100A4FF0000AE1FB44
:1096000000BA1CEB0A0C4FF0000A4AEB0A0AE2FB14
:1096100000CA1EEB0A0E4FF0000A4AEB0A0AE3FBEF
:1096200000EA15EB0A054FF0000A4AEB0A0AE4FBD0
:10963000005A12EE100A16EB0A064FF0000A4AEB27
:109640000A0AE1FB006A17EB0A074FF0000A4AEB2F
:109650000A0AE2FB007A18EB0A084FF0000A4AEB0C
:109660000A0AE3FB008A19EB0A094FF0000A4AEBE9
:109670000A0AE4FB009A07EE10BA10EE900A4FF0C7
:10968000000BE1FB00CB1EEB0B0E4FF0000B4BEB86
:109690000B0BE2FB00EB15EB0B054FF0000B4BEB5C
:1096A0000B0BE3FB005B16EB0B064FF0000B4BEBD9
:1096B0000B0BE4FB006B12EE900A17EB0B074FF05D
:1096C000000B4BEB0B0BE1FB007B18EB0B084FF097
:1096D000000B4BEB0B0BE2FB008B19EB0B094FF074
:1096E000000B4BEB0B0BE3FB009B1AEB0B0A4FF051
:1096F000000B4BEB0B0BE4FB00AB07EE90CA11EE3B
:10970000100A4FF0000CE1FB00EC15EB0C054FF0DC
:10971000000C4CEB0C0CE2FB005C16EB0C064FF063
:10972000000C4CEB0C0CE3FB006C17EB0C074FF040
:10973000000C4CEB0C0CE4FB007C13EE100A18EB55
:109740000C084FF0000C4CEB0C0CE1FB008C19EBFF
:109750000C094FF0000C4CEB0C0CE2FB009C1AEBDC
:109760000C0A4FF0000C4CEB0C0CE3FB00AC1BEBB9
:109770000C0B4FF0000C4CEB0C0CE4FB00BC08EEA7
:1097800010EA11EE900A4FF0000EE1FB005E16EBBE
:109790000E064FF0000E4EEB0E0EE2FB006E17EBC6
:1097A0000E074FF0000E4EEB0E0EE3FB007E18EBA3
:1097B0000E084FF0000E4EEB0E0EE4FB008E13EE83
:1097C000900A19EB0E094FF0000E4EEB0E0EE1FB66
:1097D000009E1AEB0E0A4FF0000E4EEB0E0EE2FB4F
:1097E00000AE1BEB0E0B4FF0000E4EEB0E0EE3FB2C
:1097F00000BE1CEB0E0C4FF0000E4EEB0E0EE4FB09
:1098000000CE14EE100AA0EC075A80E8E05FBDE835
:10981000F08F00BF30B44FF0000310F8014B11F887
:10982000015B013A84EA050443EA0403F5D1A3F19C
:1098300001034FEAD37030BC70474FF0000310F8BB
:10984000012B013943EA0203F9D1A3F101034FEAE5
:10985000D370704711F8013B00F8013B013AF9D190
:109860007047002200F8012B0139FBD1704700BF7F
:109870002DE9F00791E8F807B2E802105B1854EB05
:109880000C04B2E802104D4156EB0C06B2E802108F
:109890004F4158EB0C08B2E8021059EB01095AEBA2
:1098A0000C0A8941B3F1FF3374F1FF3475F1FF35D0
:1098B00076F1000677F1000778F1000879F10109E7
:1098C0007AF1FF3A51F100014A425B184C414D4197
:1098D00056F1000657F1000758F1000859EB02094C
:1098E0005AEB010A80E8F807BDE8F00770472DE958
:1098F000F00791E8F807B2E802105B1A74EB0C0469
:10990000B2E802108D4176EB0C06B2E802108F41EE
:1099100078EB0C08B2E8021079EB01097AEB0C0A3B
:1099200089414A425B184C414D4156F1000657F1BE
:10993000000758F1000859EB02095AEB010A80E8C8
:10994000F807BDE8F00770470A462DE9F04F41ECF3
:10995000140A92EC080A1EC910EE100AA1FB007846
:109960004FF00009E2FB00894FF0000AE3FB009A88
:109970004FF0000BE4FB00AB12EE100A4FF0000CAE
:10998000E1FB00BC4FF0000EE2FB00CE4FF0000503
:10999000E3FB00E54FF00006E4FB005605EE107A0D
:1099A00010EE900A4FF00007E1FB008719EB070962
:1099B0004FF0000747EB0707E2FB00971AEB070A97
:1099C0004FF0000747EB0707E3FB00A71BEB070B74
:1099D0004FF0000747EB0707E4FB00B712EE900AD1
:1099E0001CEB070C4FF0000747EB0707E1FB00C734
:1099F0001EEB070E4FF0000747EB0707E2FB00E7FF
:109A0000ED194FF0000747EB0707E3FB0057F61986
:109A10004FF0000747EB0707E4FB006705EE908A6D
:109A200011EE100A4FF00008E1FB00981AEB080A4B
:109A30004FF0000848EB0808E2FB00A81BEB080BFE
:109A40004FF0000848EB0808E3FB00B81CEB080CDB
:109A50004FF0000848EB0808E4FB00C813EE100ABA
:109A60001EEB080E4FF0000848EB0808E1FB00E889
:109A700015EB08054FF0000848EB0808E2FB00581A
:109A800016EB08064FF0000848EB0808E3FB0068F7
:109A900017EB08074FF0000848EB0808E4FB0078D4
:109AA00006EE109A11EE900A4FF00009E1FB00A9B2
:109AB0001BEB090B4FF0000949EB0909E2FB00B968
:109AC0001CEB090C4FF0000949EB0909E3FB00C945
:109AD0001EEB090E4FF0000949EB0909E4FB00E910
:109AE00013EE900A15EB09054FF0000949EB09093F
:109AF000E1FB005916EB09064FF0000949EB090993
:109B0000E2FB006917EB09074FF0000949EB09096F
:109B1000E3FB007918EB09084FF0000949EB09094C
:109B2000E4FB008906EE90AA14EE901A01F11001F0
:109B30001EC910EE100A4FF0000AE1FB00BA1CEB40
:109B40000A0C4FF0000A4AEB0A0AE2FB00CA1EEBBD
:109B50000A0E4FF0000A4AEB0A0AE3FB00EA15EB93
:109B60000A054FF0000A4AEB0A0AE4FB005A12EE1B
:109B7000100A16EB0A064FF0000A4AEB0A0AE1FB4C
:109B8000006A17EB0A074FF0000A4AEB0A0AE2FBE9
:109B9000007A18EB0A084FF0000A4AEB0A0AE3FBC6
