:10800000E0A40220C904010019A602006DFE0000D0
:108010006DFE00006DFE00006DFE00006DFE0000B4
:108020006DFE00006DFE00006DFE000031FE0000E0
:108030006DFE00006DFE0000C5FD000025FA000089
:1080400091FE000091FE000091FE000091FE0000F4
:1080500091FE000091FE000091FE000091FE0000E4
:1080600091FE000091FE000091FE000091FE0000D4
:1080700091FE000091FE000091FE000091FE0000C4
:1080800091FE000091FE000091FE000091FE0000B4
:1080900091FE000091FE000091FE000091FE0000A4
:1080A00091FE000091FE000091FE000091FE000094
:1080B000F5200100D3AB020091FE000091FE00000C
:1080C00091FE000091FE000091FE000091FE000074
:1080D00091FE000091FE000091FE000091FE000064
:1080E00091FE000091FE0000F5AB020091FE000041
:1080F00091FE000091FE000091FE000091FE000044
:1081000091FE000091FE000091FE000091FE000033
:1081100091FE000091FE000091FE000091FE000023
:1081200091FE000091FE000091FE000091FE000013
:1081300091FE000091FE000091FE000091FE000003
:0481400091FE0000AC
:04814400FFFFFFFF3B
:1081480081F0004102E000BF83F0004330B54FEA00
:1081580041044FEA430594EA050F08BF90EA020F6D
:108168001FBF54EA000C55EA020C7FEA645C7FEA00
:10817800655C00F0E2804FEA5454D4EB5555B8BF23
:108188006D420CDD2C4480EA020281EA030382EA94
:10819800000083EA010180EA020281EA0303362D26
:1081A80088BF30BD11F0004F4FEA01314FF4801CF9
:1081B8004CEA113102D0404261EB410113F0004F0B
:1081C8004FEA03334CEA133302D0524263EB4303C2
:1081D80094EA050F00F0A780A4F10104D5F1200E60
:1081E8000DDB02FA0EFC22FA05F2801841F10001BB
:1081F80003FA0EF2801843FA05F359410EE0A5F18F
:1082080020050EF1200E012A03FA0EFC28BF4CF0BF
:10821800020C43FA05F3C01851EBE37101F0004575
:1082280007D54FF0000EDCF1000C7EEB00006EEB82
:108238000101B1F5801F1BD3B1F5001F0CD349080C
:108248005FEA30004FEA3C0C04F101044FEA445263
:1082580012F5800F80F09A80BCF1004F08BF5FEAEA
:10826800500C50F1000041EB045141EA050130BDCA
:108278005FEA4C0C404141EB010111F4801FA4F16D
:108288000104E9D191F0000F04BF01460020B1FAC2
:1082980081F308BF2033A3F10B03B3F120020CDAFA
:1082A8000C3208DD02F1140CC2F10C0201FA0CF0D8
:1082B80021FA02F10CE002F11402D8BFC2F1200C3D
:1082C80001FA02F120FA0CFCDCBF41EA0C019040F3
:1082D800E41AA2BF01EB0451294330BD6FEA04043C
:1082E8001F3C1CDA0C340EDC04F11404C4F1200227
:1082F80020FA04F001FA02F340EA030021FA04F339
:1083080045EA030130BDC4F10C04C4F1200220FA8F
:1083180002F001FA04F340EA0300294630BD21FACD
:1083280004F0294630BD94F0000F83F4801306BF93
:1083380081F480110134013D4EE77FEA645C18BF87
:108348007FEA655C29D094EA050F08BF90EA020F1E
:1083580005D054EA000C04BF1946104630BD91EA16
:10836800030F1EBF0021002030BD5FEA545C05D119
:108378004000494128BF41F0004130BD14F5800458
:108388003CBF01F5801130BD01F0004545F0FE41CC
:1083980041F470014FF0000030BD7FEA645C1ABF01
:1083A800194610467FEA655C1CBF0B46024650EA38
:1083B800013406BF52EA033591EA030F41F4002164
:1083C80030BD00BF90F0000F04BF0021704730B5EA
:1083D8004FF4806404F132044FF000054FF00001BF
:1083E80050E700BF90F0000F04BF0021704730B580
:1083F8004FF4806404F1320410F0004548BF404255
:108408004FF000013EE700BF42004FEAE2014FEAA9
:1084180031014FEA02701FBF12F07F4393F07F4F84
:1084280081F06051704732F07F4208BF704793F087
:108438007F4F04BF41F40021704730B54FF460749A
:1084480001F0004521F000411CE700BF50EA01029D
:1084580008BF704730B54FF000050AE050EA010246
:1084680008BF704730B511F0004502D5404261EBB6
:1084780041014FF4806404F132045FEA915C3FF4F7
:10848800D8AE4FF003025FEADC0C18BF03325FEA94
:10849800DC0C18BF033202EBDC02C2F1200300FA45
:1084A80003FC20FA02F001FA03FE40EA0E0021FA6A
:1084B80002F11444BDE600BF70B54FF0FF0C4CF458
:1084C800E06C1CEA11541DBF1CEA135594EA0C0F0A
:1084D80095EA0C0F00F0DEF82C4481EA030621EA45
:1084E8004C5123EA4C5350EA013518BF52EA033580
:1084F80041F4801143F4801338D0A0FB02CE4FF032
:108508000005E1FB02E506F00042E0FB03E54FF061
:108518000006E1FB03569CF0000F18BF4EF0010E59
:10852800A4F1FF04B6F5007F64F5407404D25FEA55
:108538004E0E6D4146EB060642EAC62141EA555108
:108548004FEAC52040EA5E504FEACE2EB4F1FD0C4A
:1085580088BFBCF5E06F1ED8BEF1004F08BF5FEAC8
:10856800500E50F1000041EB045170BD06F000467A
:1085780046EA010140EA020081EA0301B4EB5C0427
:10858800C2BFD4EB0C0541EA045170BD41F480111F
:108598004FF0000E013C00F3AB8014F1360FDEBF44
:1085A800002001F0004170BDC4F10004203C35DA20
:1085B8000C341BDC04F11404C4F1200500FA05F3A3
:1085C80020FA04F001FA05F240EA020001F0004244
:1085D80021F0004110EBD37021FA04F642EB0601BA
:1085E8005EEA430E08BF20EAD37070BDC4F10C04E4
:1085F800C4F1200500FA04F320FA05F001FA04F2A8
:1086080040EA020001F0004110EBD37041F1000193
:108618005EEA430E08BF20EAD37070BDC4F120059E
:1086280000FA05F24EEA020E20FA04F301FA05F206
:1086380043EA020321FA04F001F0004121FA04F2AE
:1086480020EA020000EBD3705EEA430E08BF20EA7E
:10865800D37070BD94F0000F0FD101F000464000B8
:1086680041EB010111F4801F08BF013CF7D041EA3A
:10867800060195F0000F18BF704703F0004652003E
:1086880043EB030313F4801F08BF013DF7D043EA0F
:108698000603704794EA0C0F0CEA135518BF95EAC5
:1086A8000C0F0CD050EA410618BF52EA4306D1D14C
:1086B80081EA030101F000414FF0000070BD50EA6B
:1086C800410606BF1046194652EA430619D094EAF5
:1086D8000C0F02D150EA013613D195EA0C0F05D1DF
:1086E80052EA03361CBF104619460AD181EA030133
:1086F80001F0004141F0FE4141F470014FF00000EB
:1087080070BD41F0FE4141F4780170BD70B54FF085
:10871800FF0C4CF4E06C1CEA11541DBF1CEA135505
:1087280094EA0C0F95EA0C0F00F0A7F8A4EB0504E7
:1087380081EA030E52EA03354FEA013100F08880DE
:108748004FEA03334FF0805545EA131343EA1263A7
:108758004FEA022245EA111545EA10654FEA00265C
:108768000EF000419D4208BF964244F1FD0404F515
:10877800407402D25B084FEA3202B61A65EB030571
:108788005B084FEA32024FF480104FF4002CB6EB2E
:10879800020E75EB030E22BFB61A754640EA0C00AE
:1087A8005B084FEA3202B6EB020E75EB030E22BFEE
:1087B800B61A754640EA5C005B084FEA3202B6EB2F
:1087C800020E75EB030E22BFB61A754640EA9C00EE
:1087D8005B084FEA3202B6EB020E75EB030E22BFBE
:1087E800B61A754640EADC0055EA060E18D04FEA7C
:1087F800051545EA16754FEA06164FEAC30343EA1C
:1088080052734FEAC2025FEA1C1CC0D111F4801FE8
:108818000BD141EA00014FF000004FF0004CB6E7E1
:1088280011F4801F04BF01430020B4F1FD0C88BF80
:10883800BCF5E06F3FF6AFAEB5EB030C04BFB6EB8B
:10884800020C5FEA500C50F1000041EB045170BD7E
:108858000EF0004E4EEA113114EB5C04C2BFD4EBAB
:108868000C0541EA045170BD41F480114FF0000E2F
:10887800013C90E645EA060E8DE60CEA135594EAAB
:108888000C0F08BF95EA0C0F3FF43BAF94EA0C0FAE
:108898000AD150EA01347FF434AF95EA0C0F7FF423
:1088A80025AF104619462CE795EA0C0F06D152EA77
:1088B80003353FF4FDAE1046194622E750EA41065B
:1088C80018BF52EA43067FF4C5AE50EA41047FF46C
:1088D8000DAF52EA43057FF4EBAE12E74FF0FF3CD1
:1088E80006E000BF4FF0010C02E000BF4FF0010CA2
:1088F8004DF804CD4FEA410C7FEA6C5C4FEA430C1B
:1089080018BF7FEA6C5C1BD001B050EA410C0CBF69
:1089180052EA430C91EA030F02BF90EA020F0020CB
:10892800704710F1000F91EA030F58BF994208BF32
:1089380090422CBFD8176FEAE37040F001007047EF
:108948004FEA410C7FEA6C5C02D150EA013C07D146
:108958004FEA430C7FEA6C5CD6D152EA033CD3D091
:108968005DF8040B704700BF8446104662468C468B
:108978001946634600E000BF01B5FFF7B7FF0028BE
:1089880048BF10F1000F01BD4DF808EDFFF7F4FFE7
:108998000CBF012000205DF808FB00BF4DF808ED72
:1089A800FFF7EAFF34BF012000205DF808FB00BF95
:1089B8004DF808EDFFF7E0FF94BF012000205DF8B7
:1089C80008FB00BF4DF808EDFFF7CEFF94BF01206C
:1089D80000205DF808FB00BF4DF808EDFFF7C4FF65
:1089E80034BF012000205DF808FB00BF4FEA4102B8
:1089F80012F5001215D211D56FF47873B3EB6252E9
:108A080012D94FEAC12343F0004343EA505311F00F
:108A1800004F23FA02F018BF404270474FF00000A1
:108A2800704750EA013005D111F0004008BF6FF0DF
:108A3800004070474FF00000704700BF4FEA410206
:108A4800B2F1E04324BFB3F5001CDCF1FE5C0DD9A4
:108A580001F0004C4FEAC0024CEA5070B2F1004FEE
:108A680040EB830008BF20F00100704711F0804FF1
:108A780021D113F13872BCBF01F00040704741F4B6
:108A880080114FEA5252C2F11802C2F1200C10FABA
:108A98000CF320FA02F018BF40F001004FEAC1239E
:108AA8004FEAD32303FA0CFC40EA0C0023FA02F342
:108AB8004FEA4303CCE77FEA625307D150EA013318
:108AC8001EBF4FF0FE4040F44000704701F00040E8
:108AD80040F0FE4040F40000704700BF7BB972B917
:108AE8000029BEBF00204FF0004106E008BF002863
:108AF8001CBF6FF000414FF0FF3000F0C7B9ADF177
:108B0800080C6DE904CE002909DB002B1ADB00F004
:108B18004DF8DDF804E0DDE9022304B07047404277
:108B280061EB4101002B1BDB00F040F8DDF804E0AD
:108B3800DDE9022304B0404261EB4101524263EB9C
:108B480043037047524263EB430300F02FF8DDF80C
:108B580004E0DDE9022304B0404261EB41017047C3
:108B6800524263EB430300F021F8DDF804E0DDE94D
:108B7800022304B0524263EB4303704753B94AB926
:108B8800002908BF00281CBF4FF0FF314FF0FF300D
:108B980000F07CB9ADF1080C6DE904CE00F006F8E0
:108BA800DDF804E0DDE9022304B070472DE9F04761
:108BB8008C46089D04468A46002B4AD18A421746AD
:108BC80062D9B2FA82F64EB1C6F1200E01FA06F366
:108BD800B740B44020FA0EFE4EEA030A4FEA17489F
:108BE800230C1FFA87F9BAFBF8FE08FB1EAA0EFB36
:108BF80009F243EA0A439A420BD9FB180EF1FF31F6
:108C08002CBF012000209A4202D9002800F02A81B6
:108C18008E469A1AA3B2B2FBF8F008FB102200FBAA
:108C280009F943EA0244A14507D93C1900F1FF3389
:108C380002D2A14500F210811846A4EB090440EACB
:108C48000E4000211DB1F4400023C5E90043BDE8F2
:108C5800F0878B4208D9002D00F0F2800021C5E989
:108C6800000C0846BDE8F087B3FA83F100294ED11D
:108C78006345C0F0E880824240F2E5800846002D56
:108C8800E5D0C5E9004AE2E702B9FFDEB2FA82F6AA
:108C9800002E40F099808B1A4FEA124E1FFA82F884
:108CA80001214FEA144CB3FBFEF20EFB123008FB15
:108CB80002F94CEA004CE14508D917EB0C0C02F11B
:108CC800FF3302D2E14500F2CA801A46ACEB090C28
:108CD800A3B2BCFBFEF00EFB10CC08FB00F843EA85
:108CE8000C44A0450ED93C1900F1FF332CBF4FF0BE
:108CF800010C4FF0000CA04503D9BCF1000F00F0A7
:108D0800A8801846A4EB080440EA02409AE7C1F19B
:108D180020048B4002FA01FE0CFA01F6E24020FA28
:108D280004F72CFA04FC00FA01F813433E431F0C25
:108D3800320C1FFA83F9BCFBF7F007FB10CC00FBE1
:108D480009FA42EA0C4CE24508D913EB0C0C00F185
:108D5800FF3202D2E24500F289801046ACEB0A0CE1
:108D6800B6B2BCFBF7FA07FB1ACC0AFB09F946EACC
:108D78000C42914506D99A180AF1FF3601D291455D
:108D88007AD8B2464AEA0040A2EB0902A0FB0E6775
:108D9800BA42B446B94602D307D1B04505D2B6EBBC
:108DA8000E0C67EB030301389946002D6BD0B8EB26
:108DB8000C0362EB090202FA04F4CB40CA4000211A
:108DC8001C43C5E9004242E7B740C6F1200201FA58
:108DD80006F3B44021FA02FC4FEA174E20FA02F2D9
:108DE8001FFA87F8BCFBFEF11A430EFB11CC01FBFE
:108DF80008F0130C43EA0C4C604507D917EB0C0C30
:108E080001F1FF3301D2604533D81946ACEB000CB1
:108E180092B2BCFBFEF00EFB10CC00FB08F342EA5A
:108E28000C4C634507D917EB0C0C00F1FF3201D24B
:108E3800634525D81046ACEB030340EA014130E70F
:108E48002946284603E7841A6CEB030301209A4657
:108E580015E702383C4455E702383C44EDE6023A4F
:108E6800BC4433E7AEF1020E3B44D2E602389C44E0
:108E780074E70239BC44C9E7AAF1020A1A4481E737
:108E88000238BC44D7E72946E1E600BF704700BF77
:108E9800844641EA000313F0030349D1403A23D33F
:108EA8000B6803604B6843608B688360CB68C36062
:108EB8000B6903614B6943618B698361CB69C3614A
:108EC8000B6A03624B6A43628B6A8362CB6AC36232
:108ED8000B6B03634B6B43638B6B8363CB6BC3631A
:108EE80040304031403ADBD230320BD30B6803605C
:108EF8004B6843608B688360CB68C3601030103167
:108F0800103AF3D20C3205D351F8043B40F8043B35
:108F1800043AF9D2043208D0D2071CBF11F8013B39
:108F280000F8013B01D30B8803806046704700BFFF
:108F3800082A13D38B07B1D010F00303AED0C3F1C6
:108F48000403D21ADB071CBF11F8013B00F8013BF0
:108F5800A4D331F8023B20F8023B9FE7043AD9D367
:108F6800013A11F8013B00F8013BF9D20B78037084
:108F78004B7843708B7883706046704780EA010CA9
:108F88001CF0030F37D110F0030C20F0030021F080
:108F9800030150F8042B08BF51F8043B0ED08CF0A5
:108FA800030C6FF07F434FEACC0C23FA0CFC51F80A
:108FB800043B42EA0C0243EA0C0300BFA2F1013C65
:108FC8009A4201BF2CEA020C1CF0803F50F8042B97
:108FD80051F8043BF2D04FEA02604FEA122201280E
:108FE80028BFB0EB036F08BF1B0AF4D003F0FF03E0
:108FF800000EC01A704710F0030F0AD010F8012BAA
:1090080011F8013B012A28BF9A42F4D0A2EB0300D1
:1090180070474DF8045D50F8042B01F0030521F06A
:10902800030151F8043B022D26D04DD822F07F458C
:10903800B5EB132FA2F1013C2CEA020C0DD11CF068
:10904800803C08BF51F8043B0AD185EA0205B5EB1C
:10905800036F0CD150F8042BE8E74FEA13235BE0C9
:109068003CF07F4C54D10B784FEA126554E04FEA3C
:10907800126503F0FF034FE04FEA0245A2F1013CFD
:109088004FEA15452CEA020CB5EB134F18D11CF02A
:10909800803C08BF51F8043B07D185EA0205B5EBCF
:1090A800034F09D150F8042BE6E75FEA0C4C2FD1A7
:1090B8000B884FEA12452FE04FEA03434FEA124567
:1090C8004FEA134328E000BF02F0FF05B5EB136F2A
:1090D800A2F1013C2CEA020C0DD11CF0803C08BF27
:1090E80051F8043B0AD185EA0205B5EB032F0AD1F2
:1090F80050F8042BE8E74FEA13630DE012F0FF0F76
:1091080006D051F8043B4FEA122523F07F4303E0D1
:109118004FF0000020BC704705F0FF0203F0FF008D
:10912800012828BF904204BF2D0A1B0AF4D0A2EBE5
:10913800000020BC704700BF4FEA410C7FEA6C5C1E
:1091480002D150EA013C0AD14FEA430C7FEA6C5C39
:1091580002D152EA033C02D14FF0000070474FF0B1
:109168000100704770B491E87800B2E802105B180B
:1091780054EB0C04B2E802104D4156EB0C0680E8A3
:1091880078008041013070BC704770B491E8780075
:10919800B2E802105B1A74EB0C04B2E802108D41BD
:1091A80076EB0C0680E878008041404270BC70473E
:1091B8002DE9F00791E8F807B2E802105B1854EBC4
:1091C8000C04B2E802104D4156EB0C06B2E802104E
:1091D8004F4158EB0C08B2E8021059EB01095AEB61
:1091E8000C0A80E8F80780410130BDE8F0077047B5
:1091F8002DE9F00791E8F807B2E802105B1A74EB62
:109208000C04B2E802108D4176EB0C06B2E80210AD
:109218008F4178EB0C08B2E8021079EB01097AEB80
:109228000C0A80E8F80780414042BDE8F007704723
:109238002DE9F007524290E87800B1E8800717401E
:10924800DB1918EA020854EB080419EA020955EB7D
:1092580009051AEA020A56EB0A0678C090E878006F
:10926800B1E8800717407B4118EA020854EB08046C
:1092780019EA020955EB09051AEA020A56EB0A0629
:1092880078C080410130BDE8F00770472DE9F0074C
:10929800524290E87800B1E880071740DB1B18EAD3
:1092A800020874EB080419EA020975EB09051AEAC1
:1092B800020A76EB0A0678C090E87800B1E88007E1
:1092C8001740BB4118EA020874EB080419EA0209BE
:1092D80075EB09051AEA020A76EB0A0678C080419E
:1092E8004042BDE8F007704790E8300091E8C000C0
:1092F800A31B1340E41AF618EB1B1340ED1AFF18D2
:1093080030C0C0C17047F0B55242FFF7EDFFFFF71C
:10931800EBFFFFF7E9FFFFF7E7FFF0BD2DE9F007E7
:109328003AC91668A1FB069A4FF0000CE3FB06AC9D
:109338004FF00007E4FB06C74FF00008E5FB06788E
:1093480040F8049B56684FF00009E1FB06A91CEBA6
:10935800090C4FF0000949EB0909E3FB06C917EBB3
:1093680009074FF0000949EB0909E4FB067918EBF6
:1093780009084FF0000949EB0909E5FB068940F89F
:1093880004AB96684FF0000AE1FB06CA17EB0A0720
:109398004FF0000A4AEB0A0AE3FB067A18EB0A08C0
:1093A8004FF0000A4AEB0A0AE4FB068A19EB0A099D
:1093B8004FF0000A4AEB0A0AE5FB069A40F804CB8C
:1093C800D6684FF0000CE1FB067C18EB0C084FF058
:1093D800000C4CEB0C0CE3FB068C19EB0C094FF062
:1093E800000C4CEB0C0CE4FB069C1AEB0C0A4FF03F
:1093F800000C4CEB0C0CE5FB06AC80E88017BDE8D4
:10940800F00770470A462DE9F04F41EC140A92EC38
:10941800080A1EC910EE100AA1FB00784FF00009D7
:10942800E2FB00894FF0000AE3FB009A4FF0000BC3
:10943800E4FB00AB12EE100A4FF0000CE1FB00BC9D
:109448004FF0000EE2FB00CE4FF00005E3FB00E515
:109458004FF00006E4FB005605EE107A10EE900A75
:109468004FF00007E1FB008719EB07094FF00007F1
:1094780047EB0707E2FB00971AEB070A4FF00007D4
:1094880047EB0707E3FB00A71BEB070B4FF00007B1
:1094980047EB0707E4FB00B712EE900A1CEB070C3A
:1094A8004FF0000747EB0707E1FB00C71EEB070E6D
:1094B8004FF0000747EB0707E2FB00E7ED194FF015
:1094C800000747EB0707E3FB0057F6194FF00007C3
:1094D80047EB0707E4FB006705EE908A11EE100AD8
:1094E8004FF00008E1FB00981AEB080A4FF000085B
:1094F80048EB0808E2FB00A81BEB080B4FF000083C
:1095080048EB0808E3FB00B81CEB080C4FF0000818
:1095180048EB0808E4FB00C813EE100A1EEB080E1F
:109528004FF0000848EB0808E1FB00E815EB0805D8
:109538004FF0000848EB0808E2FB005816EB080655
:109548004FF0000848EB0808E3FB006817EB080732
:109558004FF0000848EB0808E4FB007806EE109A84
:1095680011EE900A4FF00009E1FB00A91BEB090B73
:109578004FF0000949EB0909E2FB00B91CEB090CA3
:109588004FF0000949EB0909E3FB00C91EEB090E7E
:109598004FF0000949EB0909E4FB00E913EE900AD2
:1095A80015EB09054FF0000949EB0909E1FB0059E2
:1095B80016EB09064FF0000949EB0909E2FB0069BF
:1095C80017EB09074FF0000949EB0909E3FB00799C
:1095D80018EB09084FF0000949EB0909E4FB008979
:1095E80006EE90AA14EE901A01F110011EC910EEB1
:1095F800100A4FF0000AE1FB00BA1CEB0A0C4FF00E
:10960800000A4AEB0A0AE2FB00CA1EEB0A0E4FF0F8
:10961800000A4AEB0A0AE3FB00EA15EB0A054FF0D9
:10962800000A4AEB0A0AE4FB005A12EE100A16EB8B
:109638000A064FF0000A4AEB0A0AE1FB006A17EB38
:109648000A074FF0000A4AEB0A0AE2FB007A18EB15
:109658000A084FF0000A4AEB0A0AE3FB008A19EBF2
:109668000A094FF0000A4AEB0A0AE4FB009A07EEDF
:1096780010BA10EE900A4FF0000BE1FB00CB1EEB86
:109688000B0E4FF0000B4BEB0B0BE2FB00EB15EB5B
:109698000B054FF0000B4BEB0B0BE3FB005B16EBE2
:1096A8000B064FF0000B4BEB0B0BE4FB006B12EEC1
:1096B800900A17EB0B074FF0000B4BEB0B0BE1FB82
:1096C800007B18EB0B084FF0000B4BEB0B0BE2FB8E
:1096D800008B19EB0B094FF0000B4BEB0B0BE3FB6B
:1096E800009B1AEB0B0A4FF0000B4BEB0B0BE4FB48
:1096F80000AB07EE90CA11EE100A4FF0000CE1FB28
:1097080000EC15EB0C054FF0000C4CEB0C0CE2FBDD
:10971800005C16EB0C064FF0000C4CEB0C0CE3FB5A
:10972800006C17EB0C074FF0000C4CEB0C0CE4FB37
:10973800007C13EE100A18EB0C084FF0000C4CEBF1
:109748000C0CE1FB008C19EB0C094FF0000C4CEBF6
:109758000C0CE2FB009C1AEB0C0A4FF0000C4CEBD3
:109768000C0CE3FB00AC1BEB0C0B4FF0000C4CEBB0
:109778000C0CE4FB00BC08EE10EA11EE900A4FF066
:10978800000EE1FB005E16EB0E064FF0000E4EEBEE
:109798000E0EE2FB006E17EB0E074FF0000E4EEBBD
:1097A8000E0EE3FB007E18EB0E084FF0000E4EEB9A
:1097B8000E0EE4FB008E13EE900A19EB0E094FF023
:1097C800000E4EEB0E0EE1FB009E1AEB0E0A4FF058
:1097D800000E4EEB0E0EE2FB00AE1BEB0E0B4FF035
:1097E800000E4EEB0E0EE3FB00BE1CEB0E0C4FF012
:1097F800000E4EEB0E0EE4FB00CE14EE100AA0ECA9
:10980800075A80E8E05FBDE8F08F00BF30B44FF042
:10981800000310F8014B11F8015B013A84EA0504D2
:1098280043EA0403F5D1A3F101034FEAD37030BC36
:1098380070474FF0000310F8012B013943EA020387
:10984800F9D1A3F101034FEAD370704711F8013B36
:1098580000F8013B013AF9D17047002200F8012BCA
:109868000139FBD1704700BF2DE9F00791E8F807EF
:10987800B2E802105B1854EB0C04B2E802104D4138
:1098880056EB0C06B2E802104F4158EB0C08B2E850
:10989800021059EB01095AEB0C0A8941B3F1FF3365
:1098A80074F1FF3475F1FF3576F1000677F10007A2
:1098B80078F1000879F101097AF1FF3A51F10001D4
:1098C8004A425B184C414D4156F1000657F10007DA
:1098D80058F1000859EB02095AEB010A80E8F80729
:1098E800BDE8F00770472DE9F00791E8F807B2E8FE
:1098F80002105B1A74EB0C04B2E802108D4176EB8F
:109908000C06B2E802108F4178EB0C08B2E802109E
:1099180079EB01097AEB0C0A89414A425B184C4100
:109928004D4156F1000657F1000758F1000859EB70
:1099380002095AEB010A80E8F807BDE8F00770470A
:109948000A462DE9F04F41EC140A92EC080A1EC9A8
:1099580010EE100AA1FB00784FF00009E2FB008925
:109968004FF0000AE3FB009A4FF0000BE4FB00AB5A
:1099780012EE100A4FF0000CE1FB00BC4FF0000E95
:10998800E2FB00CE4FF00005E3FB00E54FF00006D8
:10999800E4FB005605EE107A10EE900A4FF000072F
:1099A800E1FB008719EB07094FF0000747EB0707B2
:1099B800E2FB00971AEB070A4FF0000747EB07078F
:1099C800E3FB00A71BEB070B4FF0000747EB07076C
:1099D800E4FB00B712EE900A1CEB070C4FF00007EF
:1099E80047EB0707E1FB00C71EEB070E4FF0000728
:1099F80047EB0707E2FB00E7ED194FF0000747EBDD
:109A08000707E3FB0057F6194FF0000747EB070776
:109A1800E4FB006705EE908A11EE100A4FF000088B
:109A2800E1FB00981AEB080A4FF0000848EB080819
:109A3800E2FB00A81BEB080B4FF0000848EB0808F6
:109A4800E3FB00B81CEB080C4FF0000848EB0808D3
:109A5800E4FB00C813EE100A1EEB080E4FF00008D6
:109A680048EB0808E1FB00E815EB08054FF0000893
:109A780048EB0808E2FB005816EB08064FF0000810
:109A880048EB0808E3FB006817EB08074FF00008ED
:109A980048EB0808E4FB007806EE109A11EE900AED
:109AA8004FF00009E1FB00A91BEB090B4FF000097F
:109AB80049EB0909E2FB00B91CEB090C4FF000095E
:109AC80049EB0909E3FB00C91EEB090E4FF0000939
:109AD80049EB0909E4FB00E913EE900A15EB0905C7
:109AE8004FF0000949EB0909E1FB005916EB09069B
:109AF8004FF0000949EB0909E2FB006917EB090778
:109B08004FF0000949EB0909E3FB007918EB090854
:109B18004FF0000949EB0909E4FB008906EE90AA19
:109B280014EE901A01F110011EC910EE100A4FF040
:109B3800000AE1FB00BA1CEB0A0C4FF0000A4AEBE2
:109B48000A0AE2FB00CA1EEB0A0E4FF0000A4AEBB3
:109B58000A0AE3FB00EA15EB0A054FF0000A4AEB94
:109B68000A0AE4FB005A12EE100A16EB0A064FF036
:109B7800000A4AEB0A0AE1FB006A17EB0A074FF0F2
:109B8800000A4AEB0A0AE2FB007A18EB0A084FF0CF
:109B9800000A4AEB0A0AE3FB008A19EB0A094FF0AC
:109BA800000A4AEB0A0AE4FB009A07EE10BA10EE24
:109BB800900A4FF0000BE1FB00CB1EEB0B0E4FF0B1
:109BC800000B4BEB0B0BE2FB00EB15EB0B054FF01F
:109BD800000B4BEB0B0BE3FB005B16EB0B064FF09C
:109BE800000B4BEB0B0BE4FB006B12EE900A17EB30
:109BF8000B074FF0000B4BEB0B0BE1FB007B18EB5B
:109C08000B084FF0000B4BEB0B0BE2FB008B19EB37
:109C18000B094FF0000B4BEB0B0BE3FB009B1AEB14
:109C28000B0A4FF0000B4BEB0B0BE4FB00AB07EE02
:109C380090CA11EE100A4FF0000CE1FB00EC15EB96
:109C48000C054FF0000C4CEB0C0CE2FB005C16EB27
:109C58000C064FF0000C4CEB0C0CE3FB006C17EB04
:109C68000C074FF0000C4CEB0C0CE4FB007C13EEE3
:109C7800100A18EB0C084FF0000C4CEB0C0CE1FB35
:109C8800008C19EB0C094FF0000C4CEB0C0CE2FBB0
:109C9800009C1AEB0C0A4FF0000C4CEB0C0CE3FB8D
:109CA80000AC1BEB0C0B4FF0000C4CEB0C0CE4FB6A
:109CB80000BC08EE10EA11EE900A4FF0000EE1FB2E
:109CC800005E16EB0E064FF0000E4EEB0E0EE2FB9A
:109CD800006E17EB0E074FF0000E4EEB0E0EE3FB77
:109CE800007E18EB0E084FF0000E4EEB0E0EE4FB54
:109CF800008E13EE900A19EB0E094FF0000E4EEB92
:109D08000E0EE1FB009E1AEB0E0A4FF0000E4EEB12
:109D18000E0EE2FB00AE1BEB0E0B4FF0000E4EEBEF
:109D28000E0EE3FB00BE1CEB0E0C4FF0000E4EEBCC
:109D38000E0EE4FB00CE53EC172A18EE104A12EB75
:109D48000A0253EB0B0354EB0C0455EB0E050020F1
:109D580040F1000012EB0B0253EB0C0354EB0E0422
:109D680055EB0E0546410020474158EB000859EBDA
:109D78000A0940F10000B2EB0E0273F1000374F11E
:109D8800000475EB0A0576EB0B0677EB0C0778EB0E
:109D98000A0879EB0C0960F10000B5EB0B0576EBCE
:109DA8000C0677EB0E0778EB0B0879EB0E0960F1E0
:109DB80000005FEAE07C7FEA0C0CDCF1000EB2EBFD
:109DC8000C0273EB0C0374EB0C0475F1000576F1CF
:109DD800000677F1000778EB0E0879EB0C0960F1C3
:109DE80000005FEAE07CDCF1000E12EB0C0253EBA2
:109DF8000C0354EB0C0455F1000556F1000657F11D
:109E0800000758EB0E0859EB0C0940F100005FEA17
:109E1800E07CDCF1000E12EB0C0253EB0C0354EB6C
:109E28000C0455F1000556F1000657F1000758EBF0
:109E38000E0859EB0C095BEC15AA51EC160A1AEB43
:109E4800060A5BEB070B50EB080051EB09015FF0CA
:109E5800000C4CF1000C1AEB070A5BEB080B50EBFB
:109E6800090051EB090152EB0C025FF0000C53EBB7
:109E78000C0354EB0C0475414CF1000CBAEB090AC5
:109E88007BF1000B70F10000B141BA4173EB08039C
:109E9800B44175EB08056CF1000CC91B72EB0802A4
:109EA80073EB0903BC4175EB09056CF1000C5FEA23
:109EB800EC787FEA0808D8F10009BAEB080A7BEBCE
:109EC800080B70EB080071F1000172F1000273F1E8
:109ED800000374EB090475EB08056CF1000C5FEAEC
:109EE800EC78D8F100091AEB080A5BEB080B50EB89
:109EF800080051F1000152F1000253F1000354EB44
:109F0800090455EB08054CF1000C5FEAEC78D8F130
:109F180000091AEB080A5BEB080B50EB080051F13B
:109F2800000152F1000253F1000354EB090455EB10
:109F3800080514EE107AA7E8000C87E83F00BDE892
:109F4800F08F00BF000000002DE9F04F8FB0EA4607
:109F58004F4B02AFD3E8AF3F002B48D004224D4B04
:109F680007F11806186807F1300303F8252DBB61BF
:109F78000123FB61002387F8203007F10C037B6283
:109F88000723022287F82C304368BA625C6831469E
:109F98004823A04710B1404820F004FB7B7B387B66
:109FA800002540EA032007EE900AF8EE677A17EEDC
:109FB800900AFEF729FA32A3D3E90023FEF77CFAC8
:109FC800FEF73CFD354CDFF8E0B07860344B53F8D1
:109FD80025309946986899F8011043689B68984716
:109FE8004B46024640B159682E4820F0DBFAD54668
:109FF8003437BD46BDE8F08FD9F8080006EBC50830
:10A0080043684246DB6899F801109847024608B150
:10A018004B46E8E7022D2FD0D8F80400FEF7E2F906
:10A0280019A3D3E90023FEF771FB804656F83500E3
:10A038008946FEF7D7F902460B4640464946FEF7E1
:10A0480085F8CDE900015A46062107F110000EF007
:10A05800DBFB07F11003C0B2C4E90103E368204643
:10A06800013308BF01230135E36004F037FA032DFB
:10A0780004F11004AAD1BAE77868FEF7C5F9E0E759
:10A0880092CB7F48BF7DAD3F0000000080842E4109
:10A0980040090220F0080220330103008008022052
:10A0A800C8CC020048010300710103000000000051
:10A0B800F0B5294E0546306887B0436802219B6891
:10A0C8009847044628B1254820F06CFA204607B086
:10A0D800F0BD306804AA43680221DB68984704464B
:10A0E80008B11F48F0E70598FEF77CF918A3D3E9F3
:10A0F8000023FEF70BFB064604980F46FEF772F99D
:10A1080002460B4630463946FEF720F80022002367
:10A11800FEF71CF8134BD3E90423FEF715F806469F
:10A128000F460022C5E904670F4BFEF74BFC58B9F0
:10A138000E4B002230463946FEF73AFC002814BF81
:10A14800022303232B76C1E70123FBE7AFF300804B
:10A158000000000080842E41700902208C04030056
:10A16800A80403002000022000001440000014C0CE
:10A17800F8B5D0E9066705460C46002200233046AC
:10A188003946FEF701FC80B154B10221204607F0A0
:10A1980095FA044610B152490EF016FC2046F8BD57
:10A1A800504B02201B689847F3E76869FEF71AF9D5
:10A1B80032463B46FDF7C8FF41EC100B0DF0C8FED8
:10A1C8000022494B51EC100BFEF7F2FB00B33CA305
:10A1D800D3E9002330463946FEF7EAFBC0B1002236
:10A1E800424B30463946FEF7EDFB88B15CB115218C
:10A1F800204607F063FA04460028CFD06A693C4934
:10A208000EF04AFBCAE7374B15201B689847F2E760
:10A2180074B34021204607F051FA04460028BDD007
:10A2280047EC106B00F0A8FA32463B4651EC100B95
:10A23800FDF78AFF41EC100B0DF08AFE00222A4B35
:10A2480051EC100BFEF7B4FBB8B147EC106B0DF0F6
:10A258007FFE1DA3D3E9002351EC100BFEF79EFBF4
:10A2680058B132463B46234920460EF015FB95E788
:10A278001C4B40201B689847CFE747EC106B0DF04C
:10A2880067FE13A3D3E9002351EC100BFEF786FBFE
:10A2980018B132463B461849E6E747EC106B0DF01B
:10A2A80057FE0DA3D3E9002351EC100BFEF794FBE6
:10A2B8000028EED132463B461049D5E7AFF300807F
:10A2C8000000C0FFFFFFDF4144F3C2E4E4E9634C50
:10A2D8008DEDB5A0F7C6B03E0000000065CDCD41BC
:10A2E8007E1D0300D8CD02200000B03C0000E0C174
:10A2F8001A0303003F13030044130300471303002A
:10A308002DE9F04F8DB022F06EFA4FF4FA654FF652
:10A31800FF74B0FBF5F0B0FBF4F3C3EB0343C01AD2
:10A32800FEF750F841EC100B00F0AEFA65A3D3E944
:10A33800002351EC100BFEF7BFF864A3D3E9002308
:10A34800FDF704FFCDE90A0122F04DFAB0FBF5F064
:10A35800B0FBF4F4C4EB0444001BFEF733F841EC03
:10A36800100B00F0A9F95BA3D3E9002351EC100B03
:10A37800FEF7A2F859A3D3E90023FDF7E7FE0F463D
:10A38800064622F030FA4FF47A73B0FBF3F0484CEB
:10A39800484923780A68484D9B1A0344DBB23B2B93
:10A3A80023700860DFF83C811BD93C21B3FBF1F234
:10A3B80001FB123323702B780133DBB23B2B2B705C
:10A3C8000FD9B3FBF1F001FB1033182198F80020E6
:10A3D8002B70531CDBB2B3FBF1F201FB123388F88C
:10A3E80000300022DDE90A010023FEF7D7FA002831
:10A3F8004FD0DDE90A214FF0530901F10043CDE9BF
:10A408000A230022002330463946FEF7C7FA0028FF
:10A4180042D007F100431F464FF0570A9DED0A7BD3
:10A428004FF0000B8DED027BCDE908ABCDE9066757
:10A43800CDF81090227898F8003001922A785121AE
:10A4480000921E481E4A0EF0DFF91C4B5A469B46E6
:10A4580003F1520013F8011F2A2920D19DED0A7B30
:10A468008DED027BCDE908A2CDE90667CDF8109005
:10A47800227898F8003001922A78512100920F48EA
:10A488000F4A0EF0C1F98BF8510000200DB0BDE85D
:10A49800F08F4FF04E09B4E74FF0450ABEE783420C
:10A4A80001D04A40D6E70022D8E700BFAFF30080CA
:10A4B8009FD30220101D02209ED30220F279022091
:10A4C800D11A03009A9999999999A93FE17A14AEFA
:10A4D80047B5B8409A9999999999B93FFCA9F1D289
:10A4E800CD0890409DD30220D0B514460F460646AD
:10A4F800FEF77CFA2060FDF775FF02460B463046F2
:10A508003946FDF721FE04A3D3E90023FDF7D4FF64
:10A51800FEF76CFA6060D0BD0000000080842E4118
:10A52800F8B5102900F2A680DFE801F009203040D4
:10A53800A4A4A4A4A4A4A4A4A46890A47D00544C96
:10A548000AF04EFC2068FDF74DFF524B00220646EC
:10A558000F46FDF7B1FF504BC3E90001304607F144
:10A568000041FEF743FA20600020F8BD484C0AF08D
:10A5780037FC2068FDF736FF464B002206460F469B
:10A58800FDF79AFF444BC3E90201E7E7404C0AF0A4
:10A5980027FC2068FDF726FF3E4B002206460F46A3
:10A5A800FDF78AFF3C4BC3E90401D7E70AF018FC22
:10A5B800394C374DC4E9000101200CF05DFA0AF06E
:10A5C8000FFCC4E9020101200CF056FA0AF008FC5D
:10A5D8002868FDF707FF00222E4B06460F46FDF7B9
:10A5E8006BFFC4E90001C4E90201C4E90401304673
:10A5F80007F10041FEF7FAF92860B5E70EF0D4F844
:10A60800FDF7F0FE1EA3D3E90023FEF77FF8002232
:10A61800224BFDF799FD224B0022FDF797FD214BB8
:10A62800C3E90001A0E70EF0BFF8FDF7DBFE14A3B5
:10A63800D3E90023FEF76AF80022184BFDF784FDE2
:10A64800194B0022FDF782FD184BE9E70EF0ACF834
:10A65800FDF7C8FE0AA3D3E90023FEF757F8002246
:10A668000E4BFDF771FD08A3D3E90023FDF76EFD3E
:10A678000F4BD5E76FF0850077E700BFAFF3008099
:10A688000000C0FFFFFFCF41CDCCCCCCCC8C5840D4
:10A69800E8CD022000003440200502200000F03FF1
:10A6A800000035403008022000004A4038050220EA
:10A6B800400502200000000051EC100B2C4A21F04C
:10A6C8000043934200B585B020DD2A4A934209DD54
:10A6D80010EE102A0B46FDF737FD41EC100B05B0C4
:10A6E8005DF804FB684600F02FF900F0030001282C
:10A6F80017D002282FD028B301209DED021B9DED15
:10A70800000B01F0B1F851EC100BE6E79FED161BBA
:10A7180000F046FB51EC100B41EC100B05B05DF856
:10A7280004FB9DED021B9DED000B01F09DF810EE62
:10A73800100A53EC102B03F1004141EC100B05B04B
:10A748005DF804FB9DED021B9DED000B00F028FB5E
:10A7580051EC100BC1E79DED021B9DED000B00F0C5
:10A768001FFBE4E7AFF300800000000000000000DA
:10A77800FB21E93FFFFFEF7F51EC100BC1F30A53B8
:10A788002DE9F041A3F2FF350C4610EE106A0F4692
:10A79800132D1DDC002D3DDB394B43FA05F801EA8A
:10A7A8000803034319D034A3D3E90023FDF7CEFCF3
:10A7B80000220023FEF710F9D0B3002C04DA4FF47E
:10A7C800801343FA05F52F4427EA080400262FE0F2
:10A7D800332D06DDB5F5806F30D041EC100BBDE8A8
:10A7E800F081A3F213434FF0FF3828FA03F818EA70
:10A7F800000FF2D020A3D3E90023FDF7A7FC002225
:10A808000023FEF7E9F898B1002C28DB26EA0806B1
:10A818003C460DE018A3D3E90023FDF797FC00227E
:10A828000023FEF7D9F818B1002C0FDB00263446B8
:10A838002346324643EC102BBDE8F08110EE102A77
:10A848000B46FDF783FC41EC100BC8E724F00043EE
:10A858000C4A33430026B34218BF1446E8E7142DC8
:10A8680008D00123C5F1340503FA05F5AE1928BF50
:10A87800FF18CBE70137C9E79C7500883CE4377EB1
:10A88800FFFF0F000000F0BF51EC100B2C4A21F025
:10A898000043934200B585B027DD2A4A934209DD7B
:10A8A80010EE102A0B46FDF74FFC41EC100B05B0DB
:10A8B8005DF804FB684600F047F800F00300012843
:10A8C8001FD0022830D028B39DED021B9DED000B50
:10A8D80000F066FA10EE100A53EC102B03F1004159
:10A8E80041EC100B05B05DF804FB00209FED121B36
:10A8F80000F0BAFF51EC100B41EC100B05B05DF8FD
:10A9080004FB9DED021B9DED000B00F049FA51EC94
:10A91800100BCAE701209DED021B9DED000B00F016
:10A92800A3FF51EC100BC0E701209DED021B9DED2C
:10A93800000B00F099FFCDE70000000000000000C8
:10A94800FB21E93FFFFFEF7F53EC102B2DE9F04788
:10A95800BF4923F0004790B08F4240F39380BD4930
:10A968001C4682468F4229DC002C194610EE100A3C
:10A97800ADA3D3E9002340F39080FDF7E5FBB64B88
:10A98800804689469F4200F073810125A8A3D3E938
:10A998000023FDF7D9FB02460B4640464946CAE963
:10A9A8000023FDF7D1FBA2A3D3E90023FDF7CCFBDD
:10A9B800CAE90201284610B0BDE8F087A7498F42CE
:10A9C80040F38A80A6498F4200F320813D1510EE9E
:10A9D800100A1646A5F21645A7EB05510F46FEF7D5
:10A9E80005F8FDF7FFFC8046894602460B463046CF
:10A9F8003946CDE90A89FDF7A7FB0022994BFDF7F7
:10AA08005BFD89468046FDF7F1FFFDF7EBFC064646
:10AA18000F4602460B4640464946CDE90C67FDF70E
:10AA280093FB00228F4BFDF747FD00220023CDE961
:10AA38000E01FDF7A9FF002800F0658100233046CC
:10AA480039460022FDF7A0FF002814BF0123022386
:10AA5800854902202A460191514600900AA800F033
:10AA6800E3FA002C054614DADAF804204542DAF84D
:10AA78000C3002F1004203F10043CAF80420CAF87E
:10AA88000C3006E000260027002580ED000BC0E909
:10AA98000267284610B0BDE8F087FDF757FB6E4BFC
:10AAA800804689469F4200F010814FF0FF3560A331
:10AAB800D3E90023FDF74AFB02460B4640464946C8
:10AAC800CAE90023FDF740FB59A3D3E90023FDF7AA
:10AAD8003DFBCAE90201DCE70DF03AFA10EE100A74
:10AAE80059EC108B54A3D3E900234946FDF7E4FC45
:10AAF80000225E4BFDF72AFBFDF778FF0546FDF7C0
:10AB080071FC49A3D3E90023CDE90601FDF7D4FC84
:10AB180002460B4640464946FDF716FB80468946E5
:10AB280043A3D3E90023DDE90601CDE90289FDF756
:10AB3800C3FC1F2D02460B46CDE9042340F3B58024
:10AB4800DDE90423DDE90201FDF7FEFA80468946C6
:10AB58003F15C9F30A53FB1A102B40F3B38038A3EF
:10AB6800D3E90023DDE90601FDF7A6FC8046894606
:10AB780002460B46DDE90201FDF7E6FA02460B46FE
:10AB8800DDE90201CDE90823FDF7DEFA42464B462E
:10AB9800FDF7DAFA804689462BA3D3E90023DDE9DD
:10ABA8000601FDF789FC42464B46FDF7CDFA0B46F8
:10ABB8000246CDE90401DDE90801FDF7C5FAC1F354
:10ABC8000A5380468946FF1A312F00F39E809DED77
:10ABD800087BCAE900898DED027B42464B46DDE9D8
:10ABE8000201FDF7B1FADDE90423FDF7ADFA002C07
:10ABF800CAE90201BFF64DAF09F1004401F1004373
:10AC08006D42CAE90084CAE9020342E710EE100A5D
:10AC18001946FDF799FA0025CAE90201CAE90001B7
:10AC280037E700BFAFF3008000004054FB21F93F35
:10AC38003163621A61B4D03D83C8C96D305FE43FA7
:10AC48000000601A61B4D03D7370032E8A19A33BCB
:10AC5800FB21E93F7BD90240FB21F93FFB21394128
:10AC6800FFFFEF7F0000704148D202000000E03F84
:10AC780041A3D3E90023FDF767FA0D46044640A334
:10AC8800D3E90023FDF760FA02460B462046294621
:10AC98000125CAE90023FDF757FA39A3D3E90023B0
:10ACA800FDF752FACAE90201F3E640464946FDF7C4
:10ACB8004BFA394B6A1E8046894653F82230BB420C
:10ACC8003FF446AFCAE9008987E72BA3D3E90023FD
:10ACD800FDF73CFA0D46044629A3D3E90023FDF706
:10ACE80035FA02460B46204629464FF0FF35CAE999
:10ACF8000023FDF729FA22A3D3E90023FDF726FA5A
:10AD0800CAE90201C5E60323A2E61FA3D3E900238B
:10AD1800DDE90601FDF7D0FB06460F4602460B4665
:10AD2800DDE90801FDF710FA8046894602460B4620
:10AD3800DDE90801CDE90289FDF706FA32463B460E
:10AD4800FDF702FA06460F4611A3D3E90023DDE911
:10AD58000601FDF7B1FB32463B46FDF7F5F9024621
:10AD68000B4640464946CDE90423FDF7EDF98046F8
:10AD78008946A7E7AFF300800000601A61B4D03DB0
:10AD88007370032E8A19A33B0000002E8A19A33B77
:10AD9800C14920259A837B39C8D1020000000000F0
:10ADA8002DE9F04F57EC106B27F00049B9F1795FA6
:10ADB8002DED028BB0EE418AF0EE618A83B072DA33
:10ADC80010EE100A3946FDF711FE002800F0ED805C
:10ADD80032463B4630463946FDF76EFB04460D4683
:10ADE8007BA3D3E90023FDF767FB7BA3D3E900230B
:10ADF800FDF7ACF922462B46FDF75EFB78A3D3E9B5
:10AE08000023FDF7A1F922462B46FDF755FB76A353
:10AE1800D3E90023FDF79AF922462B46FDF74CFBB0
:10AE280073A3D3E90023FDF78FF922462B46FDF7DC
:10AE380043FB71A3D3E90023FDF788F922462B468B
:10AE4800FDF73AFB82468B460022714B2046294685
:10AE5800FDF732FB5246804689465B462046294626
:10AE6800FDF72AFB04460D463046394653EC182BAD
:10AE7800FDF722FB02460B4620462946FDF764F9FA
:10AE880002460B4640464946FDF75EF902460B4628
:10AE980000206049FDF758F941EC100B03B0BDECF8
:10AEA800028BBDE8F08F10EE102A10EE100A3B4618
:10AEB8003946FDF701FB04460D4645A3D3E90023B7
:10AEC800FDF7FAFA44A3D3E90023FDF73FF9224638
:10AED8002B46FDF7F1FA42A3D3E90023FDF734F935
:10AEE80022462B46FDF7E8FA3FA3D3E90023FDF7F6
:10AEF8002DF922462B46FDF7DFFA3DA3D3E90023BF
:10AF0800FDF722F922462B46FDF7D6FA3AA3D3E9F4
:10AF18000023FDF71BF92B462246FDF7CDFA3E4BE1
:10AF280082468B4699458FDD3C4B994544DC00228F
:10AF3800A9F500130020374990469946FDF704F912
:10AF4800CDE900010022324B20462946FDF7B4FA2C
:10AF580042464B46FDF7F8F85246804689465B461E
:10AF680020462946FDF7A8FA04460D4630463946DC
:10AF780053EC182BFDF7A0FA02460B46204629464B
:10AF8800FDF7E2F802460B4640464946FDF7DCF875
:10AF980002460B46DDE90001FDF7D6F841EC100B3F
:10AFA80003B0BDEC028BBDE8F08F9FED150B03B02D
:10AFB800BDEC028BBDE8F08F9FED137B4FF00008CE
:10AFC800DFF85C908DED007BBCE700BFAFF300803D
:10AFD800D43888BEE9FAA8BDC4B1B4BD9EEE213EFE
:10AFE800AD529C804F7E923E9015CB19A001FA3E3F
:10AFF8007751C1166CC1563F4C5555555555A53F0F
:10B00800000000000000F03F000000000000E73FE3
:10B018000000E03F0000F03F3233D33F0000E93F3B
:10B028000000D23F000000002DE9F04FADF5197D7A
:10B038001E46BF4C0793D31E0390013E84FB0304B6
:10B04800DB170B91C3EBA403BA4DA29823EAE37173
:10B05800019655F820004B1C099104908F1BA3EB17
:10B06800830302EBC303059383191AD43B440DF100
:10B078008008002400255E1CDDF88C9208E059F851
:10B0880027000137FDF7AEF9B742E8E8020108D01A
:10B09800002FF4DA013720462946B742E8E80201D2
:10B0A800F6D1049B002B079B4FEAC303029329DBCD
:10B0B800039A20A90DF5E07A02EB030801EB0309D6
:10B0C80072AA049B02EBC30B019B002BC0F29C816C
:10B0D8004D46039C0026002775E90223F4E8020187
:10B0E800FDF7EAF902460B4630463946FDF72EF8D9
:10B0F800444506460F46EFD109F10809EAE8026718
:10B10800DA45E1D10499DDE902208B008B4602443F
:10B118000BA89246A3F10802C31808930CAB13447A
:10B128000A9398ABBBF1000F03EBCB0353E9284517
:10B1380029DD70AB0DF1300903EBCB0800227E4B03
:10B1480020462946FDF7B8F9FDF750FCFDF74AF906
:10B1580000227A4B06460F46FDF7AEF902460B462B
:10B1680020462946FCF7F0FFFDF740FC394649F830
:10B17800040B304678E90223FCF7E8FF70AB04467D
:10B188000D469845DAD1DDF8149045EC104B484649
:10B1980000F036FC00224FF07F5310EE100A55ECF9
:10B1A800104B2946FDF788F941EC100BFFF7E4FA3C
:10B1B8000022634B51EC100BFDF77EF902460B465B
:10B1C80020462946FCF7C0FF0D460446FDF70EFC55
:10B1D8008046FDF707F90B46024629462046FCF74C
:10B1E800B3FF4B4606460F46002B40F3E1800BF1B8
:10B1F800FF320CA9C9F11803C9F1170551F822103B
:10B2080041FA03F000FA03F38044CB1A0CA943FA7D
:10B2180005F541F82230002D2CDDBBF1000F08F1B7
:10B22800010840F3A3820C9C002C40F0A780BBF1DE
:10B23800010F0AD00CA9012251F8044F531C002C0D
:10B2480040F09E809B451A46F6D1059B002B0EDDEB
:10B25800012B00F09881022B09D10BF1FF320CABC6
:10B268000CA953F82230C3F3150341F82230022DFC
:10B2780000F0AF800022002330463946FDF784FBFA
:10B28800002800F075820BF1FF39049B4B4510DC58
:10B298006FF040430CA9002208985B4401EB83033C
:10B2A80053F80419834242EA0102F9D1002A40F016
:10B2B800B580049B0CAA013B52F82330002B40F0C8
:10B2C800A1800A9A012352F8041901330029FAD0FF
:10B2D80003EB0B020BF101099145069248DC099931
:10B2E8006FF04048079809EB010300EB0B0501EBF1
:10B2F800020B984420AB03EBC505A39B03EB88081E
:10B3080070AB03EBC909A39B03EB8B03029358F8BB
:10B31800040F05F1080BFDF765F80B460199024685
:10B328000029C5E9002326DB039C002600270BE043
:10B33800ABAAAA2A50D302000000703E0000704158
:10B348000000204075E90223F4E80201FDF7B4F893
:10B3580002460B4630463946FCF7F8FE5445064689
:10B368000F46EFD1029B5D469845E9E80267CED1CA
:10B37800DDF818B0D5E600260027F3E70123002200
:10B38800C4F180740CA99B4541F822400EDD51F8A8
:10B39800232001EB8B0001EB83036FF07F4100E07A
:10B3A8001A688A1A43F8042B8342F9D101244CE71E
:10B3B80006D10BF1FF330CAA52F82350ED152AE7FA
:10B3C8000022C34BFDF7FEFA002840F0BB8105467A
:10B3D80050E732463B460020BE49FCF7B5FE06461C
:10B3E8000F46002C3FF446AF05989FEDB50B00F0D3
:10B3F80007FB3046394653EC102BFCF7A5FE0646F2
:10B408000F4637E7012363E70026002709F10809FB
:10B41800EAE80267DA457FF457AE73E6059A0CABA3
:10B42800183A53F82930CDE9068505926BB96FF0C3
:10B4380040430CA94B4401EB830353F8041909F169
:10B44800FF39183A0029F8D0059205989FED9C0B12
:10B4580000F0D6FAB9F1000F55EC104BC0F2E681B6
:10B468000CAA4FEAC9034FF0000ADFF86CB202EBEE
:10B47800890670AA089302EB0308043608F1080746
:10B4880056F8040DFCF7AEFF22462B46FDF714F8DC
:10B498005B46524667E9020120462946FDF70CF84B
:10B4A8000CAB04460D469E42EAD148AB09F10102B5
:10B4B800CDF81490C3464FF0000ADDF810900393BE
:10B4C80002920193B9F1000FC0F24D81DFF80C82AE
:10B4D8005D460024002600277BA3D3E9002303E070
:10B4E800544510DCF8E802230134F5E80201FCF7C2
:10B4F800E3FF02460B4630463946FCF727FEA145D6
:10B5080006460F46ECDA019B0AF1010AABF1080B7B
:10B51800E3E802670193029B9A45D3D1A29BDDF829
:10B528001490032B28D8DFE813F0F200DD00DD00CB
:10B538003B00079B00200021002B40F055810B9B0E
:10B548000246C3E900010B460399D1E90001FCF763
:10B55800FBFDB9F1000F0CDD4AAD01240134F5E81B
:10B568000223FCF7F3FDA145F8DA079B002B40F016
:10B578004B810B9BC3E90201069B03F007000DF505
:10B58800197DBDE8F08F0BF1FF320CAB0CA953F815
:10B598002230C3F3160341F8223068E648AB039320
:10B5A800B9F1000F40F35581039B4FEAC9016FF0D1
:10B5B8006040CDF8109003EBC9081A46029109EBD8
:10B5C800000191460191D8E900AB78E9026752463B
:10B5D8005B4630463946FCF7B9FD04460D4602463F
:10B5E8000B4630463946FCF7AFFD52465B46A2464D
:10B5F800FCF7ACFDC145AB46C8E90201C8E9004506
:10B60800E3D1DDF81090B9F1010F40F32281019BDD
:10B618000DF5947BDA00DDE9023102F1080A0192A6
:10B628000B448A44D3E900677AE9028932463B46EB
:10B6380040464946FCF78AFD04460D4602460B463D
:10B6480040464946FCF780FD32463B462646FCF715
:10B658007DFDD3452F46CAE90201CAE90045E3D179
:10B66800019C0020039B0021103403F110051C44A9
:10B6780074E90223FCF76AFDA542F9D1039C079EF1
:10B68800D4E90023D4E90245002E00F0C18003F17B
:10B69800004701F100430B992646944605F1004402
:10B6A800C1E90403069B03F00700C1E900C7C1E92B
:10B6B80002640DF5197DBDE8F08F00BFAFF300807F
:10B6C800000000000000F03F00000040FB21F93FAF
:10B6D8000000E03F0000F03F0000703EA0CB0200F9
:10B6E80048AB0393B9F1000FFFF623AF039D002089
:10B6F800002105EBC904083474E90223FCF726FD90
:10B70800A542F9D1079B002B3FF419AF6CE0089CC8
:10B718000020039D002108342C4474E90223FCF71F
:10B7280015FDA542F9D1079B13B101F10043194654
:10B738000B9BC3E90001069B03F007000DF5197D7B
:10B74800BDE8F08FBBF1000F08F101084FF00205CA
:10B758003FF769AD32463B4600203F49FCF7F4FC11
:10B7680006460F4686E500260027CCE600246CE551
:10B77800059C47EC106B6042CDE9068500F040F966
:10B78800002210EE100A354B57EC106B3946FDF7C6
:10B7980019F900B318340022314B30463946059464
:10B7A800FCF78AFE0BF10109FDF720F90446FCF7C6
:10B7B80019FE0022294BFCF77FFE0B46024639464C
:10B7C8003046FCF7C1FCFDF711F90CAB43F82B0030
:10B7D80043F8294039E630463946FDF707F90CABFE
:10B7E800D94643F82B0030E601F100430B9C024692
:10B7F800C4E900030B460399D1E90001FCF7A4FC56
:10B80800B9F1000F3FF7A8AE01F100431946B0E6C1
:10B818000B9EC6E90023069BC6E9040103F0070056
:10B82800C6E902450DF5197DBDE8F08FA29B032BF3
:10B838003FF6A2AE01A252F823F000BF55B80000AF
:10B84800E9B60000E9B60000A5B500000020002117
:10B8580069E70020002111E70000F03F0000704177
:10B868000000703E000000002DE9F04F55EC104B31
:10B8780025F000438246B3F1795F2DED028BB0EEDF
:10B88800418AF0EE618A83B007DA10EE100A294681
:10B89800FDF7ACF8002800F08E8022462B462046A3
:10B8A8002946FCF709FE06460F4602460B46204687
:10B8B8002946FCF701FE804689463046394645A3AD
:10B8C800D3E90023FCF7F8FD44A3D3E90023FCF7F0
:10B8D8003BFC32463B46FCF7EFFD42A3D3E900238D
:10B8E800FCF734FC32463B46FCF7E6FD3FA3D3E9C0
:10B8F8000023FCF729FC32463B46FCF7DDFD3DA35F
:10B90800D3E90023FCF722FCCDE90001BAF1000FCE
:10B9180037D000222E4B51EC180BFCF7CDFD824698
:10B928008B4640464946DDE90023FCF7C5FD024643
:10B938000B4650465946FCF707FC32463B46FCF797
:10B94800BBFD53EC182BFCF7FFFB06460F464046A1
:10B9580049461DA3D3E90023FCF7AEFD02460B467A
:10B9680030463946FCF7F2FB02460B46204629468C
:10B97800FCF7EAFB41EC100B03B0BDEC028BBDE811
:10B98800F08F02460B4630463946FCF795FD0EA36C
:10B99800D3E90023FCF7D8FB42464B46FCF78CFD65
:10B9A80022462B46FCF7D2FB41EC100B03B0BDEC52
:10B9B800028BBDE8F08F45EC104B03B0BDEC028B59
:10B9C800BDE8F08FAFF30080495555555555C53F33
:10B9D8000000E03F7CD5CF5A3AD9E53DEB9C2B8A55
:10B9E800E6E55A3E7DFEB157E31DC73ED561C11954
:10B9F800A0012A3FA6F810111111813F0000000094
:10BA080038B553EC102BC3F30A511C46054619BB35
:10BA180023F0004410EE101A21431CD0384C19466C
:10BA28000022384B10EE100AFCF746FDA5420246EC
:10BA38000B4634DB0C46C1F30A513639294440F22F
:10BA4800FE70814233DC002912DD2F48204040EA95
:10BA5800015343EC102B38BD40F2FF708142EDD109
:10BA680010EE100A1946FCF771FB41EC100B38BDBB
:10BA780011F1350F1EDA4CF250318D4243EC112B87
:10BA880026DD9FED1B0B0CF06DFA19A3D3E90023FB
:10BA980051EC100BFCF710FD41EC100B38BD16A350
:10BAA800D3E90023FCF708FD41EC100B38BD43EC4B
:10BAB800112BE6E714483631204040EA015310467E
:10BAC80000221946114BFCF7F7FC41EC100B38BD6E
:10BAD8009FED090B0CF046FA07A3D3E9002351ECBC
:10BAE800100BFCF7E9FC41EC100B38BDAFF30080FC
:10BAF8009C7500883CE4377E59F3F8C21F6EA50197
:10BB0800B03CFFFF00005043FFFF0F800000903C57
:10BB18002DE9F04FD5B00C46904604910C93039054
:10BB28000EF0ACFF0368184616930CF0ABFFA38920
:10BB38001490190603D52369002B00F06A870023A7
:10BB48000DF1AC0947460F9315931A931993079370
:10BB5800CDF8A0909FED907BCDE92933CDE917333F
:10BB68008DED127B3B783C46DBB1252B02D118E0EA
:10BB7800252B03D014F8013F002BF9D1E51B10D079
:10BB8800C9F80070C9F80450DDE9293201332A44A4
:10BB9800072BCDE929327DDC09F10809079B2B44E5
:10BBA80007932378002B01F06C8000234FF0FF32BD
:10BBB80004F1010B667898462B2506920A938DF8B6
:10BBC80083300BF1010BA6F120035A2B00F2B0834E
:10BBD800DFE813F0C502AE03AE03C002AE03AE0346
:10BBE800AE03A102AE03AE0396029102AE038C022D
:10BBF8007202AE035F02500250025002500250021D
:10BC08005002500250025002AE03AE03AE03AE0320
:10BC1800AE03AE03AE036C03AE0358033F036C03DD
:10BC28006C036C03AE03AE03AE03AE033A03AE037C
:10BC3800AE03DE01AE03AE03AE031603AE0384000B
:10BC4800AE03AE030003AE03AE03AE03AE03AE0312
:10BC5800AE03AE03AE036C03AE0358030B026C03D2
:10BC68006C036C0364020B025B00AE03E802AE03D4
:10BC7800D002E001F0025B00AE0316035D0086000F
:10BC8800AE03AE03F101AE035D0048F020089BF857
:10BC9800006096E728AADDE903010FF059FD80B995
:10BCA8000DF1AC097AE728AADDE903010FF050FD90
:10BCB800002800F061810B9B1BB10B9903980EF0D3
:10BCC80037FC049B9B8913F0400F079B18BF4FF06C
:10BCD800FF330793079855B0BDE8F08F48F0100878
:10BCE80018F0200F00F000850C9CC2460123073491
:10BCF80024F0070202F10801D2E900450C91002264
:10BD080054A98DF88320069A0591013200F0978195
:10BD180054EA05022AF0800840F09081069A003221
:10BD280018BF0122002A40F08981002B40F04F847F
:10BD38001AF00102089200F09984302254AF069359
:10BD480007F8012D0699002308989DF88320814261
:10BD58000B930E93B8BF0146CDE91033059112B18C
:10BD6800059B0133059318F0020302D005990231AF
:10BD7800059118F084012A9C0D9143D10A990598E0
:10BD88000D1A002D3EDD102D299A2BDD21464FF08E
:10BD9800100A2C461D4606E00000000000000000C6
:10BDA800103C102C1BDD01321031C04B09F1080981
:10BDB800072A49F804AC49F8083CCDE92921EFDD08
:10BDC80028AA0DF1AC09DDE903010FF0C1FC002838
:10BDD8007FF471AF103C102CDDE92921E3DC2B4600
:10BDE80025460C4601322C44B049072AC9F80450AC
:10BDF800C9F80010CDE9292400F35B8609F1080988
:10BE08009DF8832082B1299A012101340DF1830024
:10BE18000A44C9F804102A94072AC9F8000029928C
:10BE280000F3DA8309F108097BB1299B023421A9BF
:10BE3800022201332A94C9F80010072B2993C9F864
:10BE4800042000F3D78309F108090D9B802B00F02B
:10BE5800E382069B089A9D1A002D35DD102D299A3C
:10BE6800934B24DD21464FF0100A1C4602E0103D9A
:10BE7800102D1ADD01321031C9F8004009F1080906
:10BE8800072A49F804ACCDE92921F0DD28AA0DF1EB
:10BE9800AC09DDE903010FF05BFC00287FF40BAF70
:10BEA800103D102DDDE92921E4DC23460C46013242
:10BEB8002C44C9F80030072AC9F80450CDE92924D0
:10BEC80000F3C88309F1080918F4807F40F0448220
:10BED800299B089A0133C9F800701444C9F8042052
:10BEE800072B29932A9400F31A8309F1080918F0FB
:10BEF800040F36D00A9B059A9D1A002D31DD102DAE
:10BF0800299B22DD1026DDE9037802E0103D102D83
:10BF18001BDD01331034654A09F10809072B49F87C
:10BF2800046C49F8082CCDE92934EFDD28AA4146EC
:10BF380038460DF1AC090FF00BFC00287FF4BBAEBE
:10BF4800103D102DDDE92934E3DC01332C44574A38
:10BF5800072BC9F80450C9F80020CDE9293400F3AB
:10BF68004984079B0A9A05998A42ACBF9B185B18BB
:10BF78000793002C7FF497AE002329930B9B1BB1EA
:10BF88000B9903980EF0D4FA0DF1AC095F46E9E578
:10BF980048F0100818F0200F00F0B9830C9C073403
:10BFA80024F0070303F10802D3E900450C9228F4B2
:10BFB800806A0023A3E63F4B18F0200F159300F08A
:10BFC8000F810C9C073424F0070303F10802D3E91E
:10BFD80000450C9254EA050303D018F0010F40F015
:10BFE800458428F4806A022389E6C2461AF0200FA5
:10BFF80000F035810C9C073424F00704D4E90023B1
:10C0080004F108011D4614460C91002A73F100033F
:10C0180006DA64424FF02D0365EB45058DF8833051
:10C0280054AB0593069B013300F0248354EA0502C0
:10C038004FF001032AF080083FF470AEC246012B8E
:10C0480000F01883022B40F0E18254AF15982309C1
:10C0580004F00F012A0943EA057315461C46435CA0
:10C0680007F8013D54EA0503F1D1059BD046DB1BD7
:10C07800089367E6A6F13003002202EB82021BF860
:10C08800016B03EB4202A6F13003092BF5D90A92A2
:10C0980099E548F080089BF8006092E59BF80060FD
:10C0A800682E00F0E28448F040088AE5F4D30200E4
:10C0B80004D40200C0D302009BF800600BF1010217
:10C0C8002A2E01F0E981A6F13003092B00F2BC8683
:10C0D800002101EB810112F8016B03EB4101A6F18C
:10C0E8003003092BF5D9069193466CE59BF800605F
:10C0F80048F0040865E58DF883509BF8006060E51A
:10C108000C9B9BF800601A680433002A0A92C0F25C
:10C118008F840C9355E5039E30460EF0AFFC4368C0
:10C12800184619930CF0AEFC1890044630460EF0F1
:10C13800A5FC83681793002C3FF4A9AD002B3FF4AE
:10C14800A6AD1B789BF80060002B3FF43AAD48F48D
:10C15800806836E548F001089BF8006031E59DF8F5
:10C1680083309BF80060002B7FF42BAD20238DF8E3
:10C17800833026E50C9A18F0200F52F8043B0C92F5
:10C1880040F06C8318F0100F40F0768518F0400FDF
:10C1980040F0798618F4007F00F06E85079A5F46B4
:10C1A8001A70DFE49BF800606C2E00F0568448F0AB
:10C1B800100806E50C9A47F6300348F0020A0025F5
:10C1C80014680432ADF884307826B24B0C9215937B
:10C1D800022394E5B04B18F0200F15937FF4F1AECD
:10C1E8000C9A18F0100F02F1040340F0328318F093
:10C1F800400F0C9A00F02983148800250C93E9E677
:10C208000C9B00251F681C1D8DF88350002F00F023
:10C218004084069A531C00F0F185294638460EF0F2
:10C22800BBFC0B90002800F08E870B9B0695D91B52
:10C238000C949DF88320089121EAE1710B950591F2
:10C248000E95CDE910558AE548F008089BF800607E
:10C25800B7E448F0100A1AF0200F7FF4CBAE0C9A1E
:10C268001AF0100F02F1040340F0E8821AF0400FB0
:10C278000C9A00F0DF82B2F900400C93E5172246D1
:10C288002B46C2E60C9A002301203BAF116804320A
:10C2980005900C921A468DF883308DF8EC100890B2
:10C2A8000B9306930E93CDE910335CE50C9C4FF08D
:10C2B800FF327A4B073424F0070494ED007B04F135
:10C2C800080155EC174B0C9125F000418DED1C7AB7
:10C2D8001D91DDE91C018DED127BFCF72DFF002877
:10C2E80040F0D0824FF0FF326C4BDDE91C01FCF7C7
:10C2F8005FFB002840F0C682002200232046294622
:10C30800FCF74CFB002840F03D869DF88320032075
:10C31800634F644B0590002128F080080890472E51
:10C32800D8BF1F460B9106910E91CDE9101116E565
:10C33800002E00F0A684012200238DF8EC603BAFAC
:10C34800114605921A468DF8833008910B92069291
:10C358000E92CDE9102206E5652E40F3EC8000220E
:10C368000023DDE91201FCF70FFB002800F0A08094
:10C37800299B012201344C491344C9F804202A940A
:10C38800072BC9F80010299300F3568409F108090E
:10C39800229B0F9A2A9C934280F22682299B149A08
:10C3A800013316991444C9F80420072BC9F8001062
:10C3B800CDE9293400F3618309F108090F9B5D1E5B
:10C3C800002D7FF794AD102D299A384B40F31B842C
:10C3D8001946102623460C46DDE9037A03E0103D92
:10C3E800102D40F30D8401321033C9F8004009F1D3
:10C3F8000809072A49F8046CCDE92923EFDD28AAA2
:10C40800514638460DF1AC090FF0A2F900287FF427
:10C4180052ACDDE92923E2E70A9B059A9D1A002D13
:10C428007FF717AD102D299A204B24DD21464FF0B8
:10C43800100A1C4602E0103D102D1ADD01321031A1
:10C44800C9F8004009F10809072A49F804ACCDE900
:10C458002921F0DD28AA0DF1AC09DDE903010FF06F
:10C4680077F900287FF427AC103D102DDDE929214C
:10C47800E4DC23460C4601322C44C9F80030072A74
:10C48800C9F80450CDE9292400F3C98309F1080942
:10C49800DFE400BFC0D30200D4D30200FFFFEF7F68
:10C4A800B4D30200B0D30200F0D3020004D40200D7
:10C4B800229B002B00F34C81299A01210134C848A2
:10C4C8000A44C9F804102A94072AC9F800002992D6
:10C4D80000F32B8609F108090F9A1A4300F06A86BF
:10C4E800299A1499013216980C44C9F80410072A9D
:10C4F800C9F800002A94299200F3318609F1080945
:10C50800002BC0F2CA860F9B0132C9F800701C4488
:10C51800072AC9F80430CDE929247FF7E6AC28AA10
:10C52800DDE903010FF014F900287FF4C4AB2A9C5D
:10C538000DF1AC09DBE40F9A0134299B09F10805D8
:10C54800012A03F1010640F3F0800123072EC9F800
:10C558000070C9F80430CDE9296400F34583149BC1
:10C568000136169A1C44072E2A606B60CDE92964AF
:10C5780000F32E830835731C0F9A05F108090893F8
:10C5880002F1FF3A069300220023DDE91201FCF7CD
:10C59800FBF900287CD1069B01375444072B2993CB
:10C5A8002A94C5E9007A00F3488205F11003B21C09
:10C5B8004D46994606921A9A24AB14446A60069A24
:10C5C8002A94072A29922B607FF791ACA7E7069255
:10C5D80054AF0892FFF7B6BB28AA1B93DDE9030105
:10C5E8000FF0B6F800287FF466AB2A9C0DF1AC0971
:10C5F8001B9B19E428AADDE903010FF0A9F800281C
:10C608007FF459AB2A9C0DF1AC091EE454A900E053
:10C618003946E20804F00703E8084F1E42EA45726B
:10C6280030330546144601F8013C54EA0502EFD1BF
:10C63800302B3FF41AAD1AF0010F3FF416AD023952
:10C64800059A3023D046521A07F8013C0F46089243
:10C65800FFF778BB28AADDE903010FF079F8002875
:10C668007FF429AB2A9C0DF1AC092DE4069354AF55
:10C67800FFF768BB002D08BF0A2C80F08681303494
:10C6880054AF0123D04607F8014D0893FFF75ABB72
:10C69800BAF1000F8FDDBAF1100F40F3A986514BA4
:10C6A80022461027DDF80C9008991C4606E0AAF1EE
:10C6B800100A711CBAF1100F40F3CA821032072910
:10C6C8002C600E466F6005F10805CDE92912EEDDF4
:10C6D80028AA049948462BAD0FF03AF800287FF4B1
:10C6E800EAAADDE92962E2E70C9B18F0100F03F1D2
:10C6F800040240F0988018F0400F00F08F800C9BE7
:10C70800C24600250C921C880123FFF7F8BA0C9A40
:10C7180018F0100F02F104037BD118F0400F0C9AA7
:10C7280073D0148800250C9341E418F0010F7FF4AE
:10C738000CAF0122072EC9F80070C9F80420CDE912
:10C74800296400F37A81023309F11009069332E76C
:10C75800DDE90E329342A8BF1346002B1D460DDDBE
:10C76800299B2C44C9F8007001332A94C9F8045055
:10C77800072B299300F31A8409F108090E9B002D51
:10C78800A8BF5B1B002B1D4640F3BD81102D299AC5
:10C79800144B40F3A2812146069710261F46DDE977
:10C7A80003A403E0103D102D40F3948101321031B1
:10C7B800C9F8007009F10809072A49F8046CCDE99D
:10C7C8002921EFDD28AA214650460DF1AC090EF0CB
:10C7D800BFFF00287FF46FAADDE92921E2E700BF47
:10C7E800F0D3020004D4020018F0010F7FF4D6AD94
:10C7F800FFF77DBB28AADDE903010EF0A9FF002899
:10C808007FF459AA2A9CFFF7ACBB18F4007F40F0CC
:10C818002083146800250C93FFF7C9BB18F4007F28
:10C8280040F01C830C9B1C68C2460C920123002517
:10C83800FFF765BA1AF4007F40F01D8314680C9363
:10C84800E51722462B46FFF7E0BB18F4007F40F0BF
:10C858000D83146800250C93FFF7BCBB079A5F464D
:10C868001046D117C3E90001FFF77CB9302348F01F
:10C8780002088DF885608DF8843028F4806A0223D8
:10C88800FFF73DBADDE9120102460B46FCF754FCFE
:10C89800002840F0A28526F0200ABAF1410F40F0A6
:10C8A800BE82612E4FF0300214BF582378238DF8D2
:10C8B800842048F002028DF88530069B0592632B90
:10C8C80000F3ED8248F48178139B3BAF0B90002B6B
:10C8D800C0F27D8300239DED127B0D938DED1E7BB1
:10C8E800BAF1410F00F07C83BAF1460F00F0F883EB
:10C8F800BAF1450F40F00285069B26A823A95C1CC7
:10C9080022ABCDE900102246022103989DED1E0BB3
:10C9180000F0EEFD07463C4400220023DDE91E013D
:10C92800FCF732F8002800F056842346DB1BBAF1E6
:10C93800470F0F93229B0E9300F0C682BAF1460F61
:10C9480040F0CA820E9B002B069B40F36085002BAB
:10C9580040F03785059BDD0700F133850E9B662681
:10C968000893059B5A0500F17184089B23EAE37339
:10C9780005930023CDE910330D9B002B40F09D82D9
:10C9880006939DF88320FFF7EAB90AF48063002232
:10C99800CDF820B00DF5A878CDF82C909346B14687
:10C9A8001E460A22002320462946FCF7E7F83032C3
:10C9B8000BF1010B08F1FF3708F8012C86B1002DA7
:10C9C800179B08BF0A2C1A782CBF01230023FF2AC3
:10C9D8000CBF002303F0010313B15A4500F0238470
:10C9E8002046294600230A22FCF7C8F804460D46CB
:10C9F800B84654EA0503D4D1059B4E46CDF83CB061
:10CA0800D046DB1BDDF820B0DDF82C900893FFF74B
:10CA180099B9402103980BF015FB049B1860186125
:10CA2800002800F04C854023049A5361FFF787B82B
:10CA380052420C930A92FFF75BBB28AADDE9030177
:10CA48000EF086FE00287FF436A9299B0DF1B40963
:10CA58002A9C2BAD01330693ADE59BF8016048F0A5
:10CA680020080BF1010BFFF7ACB89BF8016048F404
:10CA780000780BF1010BFFF7A4B828AADDE9030140
:10CA88000EF066FE00287FF416A92A9C0DF1AC0969
:10CA980094E4069B3A460697062B0E9728BF062372
:10CAA800CDE90B74CDE9107705930893C14FFFF7D3
:10CAB80056B928AA1B93DDE903010EF049FE0028A8
:10CAC8007FF4F9A89DF883200DF1AC092A9C1B9BE3
:10CAD800FFF798B93B460C46069F01322C44C9F82B
:10CAE8000030072AC9F80450CDE9292440F3A98168
:10CAF80028AADDE903010EF02BFE00287FF4DBA84D
:10CB08002A9C0DF1AC090E9B18F4806F3B449A46A1
:10CB180040F0C480229B0F9A934248DB18F0010F23
:10CB280045D10F9ABD18D31AA5EB0A059D42A8BF97
:10CB38001D46002D0DDD299A2C44C9F800A00132AC
:10CB48002A94C9F80450072A299200F3248309F18A
:10CB58000809002DACBF5D1B1D46002D7FF7C7A936
:10CB6800102D299A944B4EDD1946102623460C4663
:10CB7800DDE9037A02E0103D102D41DD013210336A
:10CB8800C9F8004009F10809072A49F8046CCDE9F9
:10CB98002923F0DD28AA514638460DF1AC090EF0DC
:10CBA800D7FD00287FF487A8DDE92923E3E7299A40
:10CBB8001499013216980C44C9F80410072AC9F8C8
:10CBC80000002A94299200F3D98209F10809A8E7FC
:10CBD80028AADDE903010EF0BBFD00287FF46BA84D
:10CBE8002A9C2BAD299EC6E428AADDE903010EF094
:10CBF800AFFD00287FF45FA82A9C2BAD299EAEE4E8
:10CC080021461C460B4601322C44C9F80030072A3D
:10CC1800CDE92924C9F804507FF767A97FE428AA39
:10CC2800DDE903010EF094FD00287FF444A82A9C56
:10CC38000DF1AC09FFF70DB928AADDE903010EF0E3
:10CC480087FD00287FF437A80DF1AC09FFF7A0BBDA
:10CC58002346144605F1080206915444C5E9003AF2
:10CC6800069B2A94072B29933FF7E7AE013302F17D
:10CC78000809154606939EE4079A5F461A60FEF770
:10CC880071BF2A9B002B3FF41CA8049C28AA039878
:10CC980021460EF05DFDA389FFF715B8119B002B07
:10CCA8000ADC109B002B07DC0F9BFB180693069BE6
:10CCB8009A4528BF9A462DE70F9B2246CDF8348027
:10CCC800D046FB180E973C4EDDF85CA0119F0893E8
:10CCD800002F73D0013F2999189B013119981A44E4
:10CCE800C9F804300729C9F800002A9229916BDC99
:10CCF80009F10809089B9AF80010A3EB08050693A8
:10CD08008D42A8BF0D46002D0EDD29992A44C9F889
:10CD1800008001312A92C9F80450072929915FDC63
:10CD280009F108099AF80010002DACBF4D1B0D46FB
:10CD3800002D31DD102D29991FDD102402E0103D52
:10CD4800102D1ADD01311032C9F8006009F1080907
:10CD5800072949F8044CCDE92912F0DD28AA0DF17C
:10CD6800AC09DDE903010EF0F3FC00287EF4A3AF63
:10CD7800103D102DDDE92912E4DC01312A44C9F8FF
:10CD880000600729C9F80450CDE9291200F3008191
:10CD980009F108099AF80010109B8844002B97DCC9
:10CDA800002F95DCCDF85CA01446C2460E9FDDF836
:10CDB80034807CE7E8D3020004D40200109B0AF117
:10CDC800FF3A013B109386E728AADDE903010EF03C
:10CDD800BFFC00287EF46FAF2A9A0DF1AC0989E7F1
:10CDE80028AADDE903010EF0B3FC00287EF463AF46
:10CDF8009AF800100DF1AC092A9A95E7384606957D
:10CE08000BF040FE20EAE072089005920C940B9516
:10CE18000E959DF88320CDE91055FEF7A0BF069921
:10CE280048F48072139B4C1C32D0BAF1470F40F083
:10CE38007982CDF81480002900F0FE820B9090468C
:10CE480045E509F108095EE6002393460693FEF7D7
:10CE5800BABE147800250C93FFF7A9B80C9BC246FC
:10CE680000250C921C780123FEF749BF1478002591
:10CE78000C93FFF7AFB892F900400C93E5172246E0
:10CE88002B46FFF7C2B8079A5F461A80FEF76ABEBC
:10CE9800CDF81480904606220B90069217E5069B63
:10CEA8000398591C0BF0CEF80746002800F00F83B2
:10CEB80048F48178139B0B9009E52D2200238DF807
:10CEC80083200693FEF74CBF069A9A4201DB033390
:10CED8003EDA023E26F0200A0E9BBAF1410FF2B26A
:10CEE80003F1FF33229301D10F32D2B2002B8DF818
:10CEF8009020C0F280822B228DF89120092B00F31C
:10CF08003082BAF1410F00F0A48230220DF1930172
:10CF18008DF8922030334A1C0B7024ABD31A0F9A29
:10CF28001A93012A1344089340F36C82089B149ABD
:10CF380013440893059B0022089923F480631192F7
:10CF480021EAE171109243F480780E92059113E57D
:10CF58000F9B19460E9B994200F33281059AD00720
:10CF680040F12C82149A13440893059B590503D564
:10CF78000E9B002B00F36981089B672623EAE37365
:10CF88000593F6E42D231A468DF88330FFF7BFB9D1
:10CF980028AADDE903010EF0DBFB00287EF48BAE46
:10CFA8009AF800100DF1AC092A9AF5E628AADDE9ED
:10CFB80003010EF0CDFB00287EF47DAE2A9C0DF116
:10CFC800AC09FFF7DBBBCDF8148090460B902D23FE
:10CFD800DDE912120D9302F100431E911F937FE4C5
:10CFE80022A89DED1E0B0EF0EFFA00224FF07F53A2
:10CFF80051EC100BFBF760FA00220023CDE9080181
:10D00800FBF7C2FC08B101232293069B3946B64AB6
:10D0180003F1FF38B54B1197612E08BF1A46CDF8BA
:10D028004090CDE90EB606929346DDE90867CDF843
:10D0380020A08A4605E000220023FBF7A5FC00BBE0
:10D04800A2460022AA4B30463946FBF735FA0D4670
:10D058000446FBF7CBFC8146FBF7C4F90B460246B6
:10D0680029462046FBF770F854461BF80930B8F1FA
:10D07800FF3F454606460F4604F8013B08F1FF38D6
:10D08800D9D13046394600229A4BDDF838B0C84627
:10D09800CDF838A00F9EDDF820A0DDF84090119F54
:10D0A800CDE90801FBF798FC002840F0A180002298
:10D0B800904BDDE90801FBF767FC18B15FEAC8721D
:10D0C80000F19680002D06DB6B1C3022234404F807
:10D0D800012BA342FBD1E31B0F93229B0E93FBE68C
:10D0E80026A923A822AB069A019103210090039850
:10D0F8009DED1E0B00F0FCF903780746302B0ED18E
:10D10800002200234FF00104DDE91E01FBF73CFC7F
:10D1180008B14FF0000414F0FF0F40F0B881229BD3
:10D12800069A1344FC18FFF7F7BB28AADDE90301A8
:10D138000EF00EFB00287EF4BEAD229B0DF1AC096B
:10D148002A9CFFF7C9B9069B0C940593089306908F
:10D158009DF883200E90CDE91000FEF700BE28AAA6
:10D16800DDE903010EF0F4FA00287EF4A4AD229B59
:10D178000DF1AC09DDE92924FFF7C2B928AADDE9D8
:10D1880003010EF0E5FA00287EF495AD229B0DF11F
:10D19800AC092A9CC5E428AADDE903010EF0D8FAF7
:10D1A80000287EF488AD229B0DF1AC090F9A2A9CC9
:10D1B800D31ACEE418F0010F3EF499AEFFF790B9F8
:10D1C8000F9B149A134408930E9B002B40F329815C
:10D1D8006726FFF7C6BB269BA342BFF4A7AB302147
:10D1E8005A1C26921970269B9C42F9D8FFF79EBBC1
:10D1F8000E9B2693069B14F8012CD97B234691425B
:10D2080009D1302003F8010C269B5A1E269213F8E8
:10D21800012C9142F6D0392A00F023810132D2B292
:10D2280003F8012C57E7189B4FF0000B1999FF1AC8
:10D238001A4638460BF09AFC179A5378002B00F0E0
:10D24800C98001321792FFF7CBBB672600221798D7
:10D258001192109203780E9AFF2B0BD0934209DAA1
:10D268004178D21AA9B1109B0130013310930B46B3
:10D27800FF2BF3D10E9208991790DDE91032134471
:10D28800189A02FB0313089323EAE3730593FFF745
:10D2980073BB119901311191DEE75D421033164BD2
:10D2A80050DA21461026DDF80CA01C4602E0103D9D
:10D2B800102D45DD01321031C9F8004009F1080987
:10D2C800072A49F8046CCDE92921F0DD28AA049938
:10D2D80050460DF1AC090EF03BFA00287EF4EBAC99
:10D2E800DDE92921E3E700BFD4D30200C0D302005F
:10D2F800000030400000E03F04D4020026A923A823
:10D3080022AB069A01910221009003989DED1E0B15
:10D3180000F0EEF8BAF1470F074600F09480069C3B
:10D32800FFF7F9BA002BFFF64EAECDF81480904601
:10D338000D900B909DED127B8DED1E7BFFF7D4BAFF
:10D3480023460C4601322C44C9F80030072AC9F894
:10D358000450CDE9292400F38C8009F10809FFF76E
:10D36800D2B80DF19F0C5D4D604600E02046A5FB4C
:10D378000321441EC90801EB81020929A3EB4202DB
:10D388000B4602F1300200F8012CEFDC3033023892
:10D39800DBB2844504F8013C40F28A8022460DF154
:10D3A800920101E012F8013B944501F8013BF9D1E3
:10D3B80028AA0DF19203121B1A44AEE50E9B08939E
:10D3C800D3E5149A66260E9B1344069A1A440892CB
:10D3D800FFF7C7BA9B46FFF703BB139B002B43DB42
:10D3E8009DF8832003203E4F3E4B0590FEF793BFE8
:10D3F8004A463D4B31E42D220E9B8DF89120C3F116
:10D4080001037BE5059BDB077FF594AD8EE51BBB30
:10D41800059BDC0720D40123662605930893FFF7B4
:10D42800A8BAC3F101036726089A1A4422EAE273EC
:10D4380008920593FFF79DBA0699904601220B9131
:10D448000692FFF744BA059BDB0734D4269BFFF707
:10D458006DBA0DF192015DE5149B6626069A0133BB
:10D46800E3E7069A927ADBE62D231A468DF8833095
:10D47800B8E728AADDE903010EF06AF900287EF46E
:10D488001AAC2A9C0DF1AC09299AFFF73CB8069B07
:10D49800C3F10103229343E60C999BF8016093467C
:10D4A8000B68043143EAE3730C910693FEF789BBDA
:10D4B8000DF1920231E5069BFC18FFF72DBA4FF0EB
:10D4C800FF320C230792039A1360FEF703BC049AF9
:10D4D800938943F040039381FEF7F5BBCDCCCCCCC8
:10D4E800BCD30200B8D3020004D40200000000003C
:10D4F8002DE9F04F99B0044610EE10AA0091CDE93D
:10D508000332036C57EC106BBB464BB1456C0122E0
:10D518001946AA40C3E901520DF0A8FB0023236471
:10D52800B7F10009C0F2AF800023229A13607A4B4A
:10D5380033EA090300F0B28050465946002200231E
:10D54800FBF722FA56465F46804668B10123039AE4
:10D558001360239B002B00F0CC80704F1F60013FAD
:10D56800384619B0BDE8F08F16AA17A9204647EC2F
:10D57800106B0DF013FE09905FEA195540F0AC806E
:10D58800DDE91685454405F23243202B40F39282AB
:10D59800C3F1400305F2124009FA03F92AFA00F030
:10D5A80049EA0000FAF70EFF013D01220646A1F103
:10D5B800F8771492304639460022594BFAF7C4FDE1
:10D5C8004FA3D3E90023FAF777FF4FA3D3E900234A
:10D5D800FAF7BCFD06460F462846FAF703FF4CA3A8
:10D5E800D3E90023FAF768FF02460B46304639466E
:10D5F800FAF7ACFD06460F46FBF7F8F9002281461C
:10D60800002330463946FBF7C9F9002840F0458227
:10D61800B9F1160F00F22E82424952465B4601EBE1
:10D62800C901D1E90001FBF7D7F9002800F04982C8
:10D63800002309F1FF391093A8EB05056B1E06932B
:10D6480000F1258200230893B9F1000FC0F215827A
:10D65800069BCDF83C904B44069300230E93009B09
:10D66800092B67D8052B40F32A82043B0025009339
:10D67800009B023B032B00F24B82DFE813F083028E
:10D68800A102AD02A8040123229A29F000491360DF
:10D69800214BCB4633EA09037FF44EAF42F20F73B6
:10D6A800039A1360BAF1000F0FD1C9F3130363B9DA
:10D6B800239B1D4F002B3FF453AF07F10803239A18
:10D6C8003846136019B0BDE8F08F239B174F002B25
:10D6D8003FF446AFFB1CF2E7CBF31303CDF85080C1
:10D6E800A5F2FF35DDF8588043F07F5747F440171F
:10D6F80060E70F4F384619B0BDE8F08FAFF30080F0
:10D7080061436F63A787D23FB3C8608B288AC63F3F
:10D71800FB799F501344D33F0000F07FF1D3020000
:10D728000000F83F00CC020038D5020044D50200C2
:10D73800F0D30200002301221D460C924FF0FF3265
:10D748000093049307920021079B6164119320467C
:10D758000DF066FA05902064002D00F0E580504633
:10D768005946B9F1000FCDE9120140F31A83BB4ABB
:10D7780009F00F034FEA291502EBC303D3E9006749
:10D78800EB0640F1F881B64B05F00F054FF0030AA0
:10D79800D3E90823FAF7BAFFCDE90A0195B1DFF812
:10D7A800C08215F0010F3046394607D00AF1010A48
:10D7B800D8E90023FAF780FE06460F466D1008F1F7
:10D7C8000808EED132463B46DDE90A01FAF79EFF2A
:10D7D800CDE90A01109B43B10022A24BDDE90A0101
:10D7E800FBF7DCF8002840F0AD845046FAF7FAFD64
:10D7F800DDE90A23FAF760FE9B4B0022FAF7A6FC44
:10D80800079B8246A1F1507B002B00F0F681079B15
:10D81800CDF834901593059BDDE90A675D1C394600
:10D828003046FBF7E3F88046FAF7DCFD02460B4684
:10D838003046394608F13008FAF786FC874B0F4620
:10D84800159906460C9803EBC1035FFA88F853E96B
:10D858000223002800F0638300208449FAF756FF6A
:10D8680052465B46FAF770FC059A3B46824682F8B8
:10D87800008032468B46FBF7AFF800284DD1324680
:10D888003B4600207749FAF75FFC52465B46FBF7B8
:10D8980085F8002840F0F9841599012942D0059AA5
:10D8A800CDF82890114489460EE032463B460020C8
:10D8B8006C49FAF749FC52465B46FBF76FF80028BB
:10D8C80040F0E3844D452BD0504659460022684B22
:10D8D800FAF7F2FD0022664B82468B4630463946FF
:10D8E800FAF7EAFD0F460646FBF780F88046FAF796
:10D8F80079FD02460B4608F13008304639465FFA92
:10D9080088F8FAF721FC52465B4605F8018B064673
:10D918000F46FBF743F80028C7D0059F059589E017
:10D92800DDF82890DDE912ABB9F10E0F179B02DC88
:10D93800002B80F2FF800C9A002A40F0CC800C9BD0
:10D948000E9E089F0A93002F0CDD069A002A09DD17
:10D95800BA4213460899A8BF3B46C91AFF1AD31AF8
:10D96800089106930E9B6BB10C9A002A00F0DB839A
:10D978009D1B002E40F00D842A46099920460DF083
:10D98800C5FA0990012120460DF00EFA0F9A0646B5
:10D99800002A40F05781009B012B40F301850120AC
:10D9A800069A104410F01F0000F04381C0F12003D4
:10D9B800042B40F3FB84C0F11C00089B0244034481
:10D9C800074408930692089B002B05DD1A4609991F
:10D9D80020460DF0EBFA0990069B002B05DD314639
:10D9E8001A4620460DF0E2FA0646009B022B109BD1
:10D9F800D4BF4FF000084FF00108002B40F01C8204
:10DA0800079B002B00F34A81B8F1000F00F0468114
:10DA1800079B002B00F07983049B059FDB430D9344
:10DA2800314620460DF022F90A9B1BB10A9920467F
:10DA38000DF01CF9099920460DF018F900220D9BEC
:10DA4800059901330A70039A1360239B002B3FF456
:10DA580087AD3846196019B0BDE8F08F00CC0200D8
:10DA6800D8CB02000000F03F00001C400000E03F5F
:10DA78000000244001231093DEE5089BA3EB090373
:10DA88000893C9F100030E9300230F93E7E5C5F14E
:10DA98000103089300230693D6E54846FAF7A2FC4B
:10DAA80032463B46FAF770FF00287FF4B1AD09F122
:10DAB800FF39ADE5C3F120090AFA09F072E501253D
:10DAC800D6E51090B8E501214FF0FF320C91002106
